{
	"contractName": "Zoom",
	"abi": [
		{
			"anonymous": false,
			"inputs": [
				{
					"components": [
						{
							"components": [
								{
									"internalType": "string",
									"name": "nickname",
									"type": "string"
								},
								{
									"internalType": "address",
									"name": "owner",
									"type": "address"
								}
							],
							"internalType": "struct Zoom.user[]",
							"name": "players",
							"type": "tuple[]"
						},
						{
							"internalType": "uint256[]",
							"name": "playerFunds",
							"type": "uint256[]"
						},
						{
							"internalType": "bytes",
							"name": "metadata",
							"type": "bytes"
						}
					],
					"indexed": false,
					"internalType": "struct Zoom.gameDetails",
					"name": "game",
					"type": "tuple"
				}
			],
			"name": "GameWaitArea",
			"type": "event"
		},
		{
			"constant": true,
			"inputs": [
				{
					"internalType": "address",
					"name": "",
					"type": "address"
				}
			],
			"name": "users",
			"outputs": [
				{
					"internalType": "string",
					"name": "nickname",
					"type": "string"
				},
				{
					"internalType": "address",
					"name": "owner",
					"type": "address"
				}
			],
			"payable": false,
			"stateMutability": "view",
			"type": "function"
		},
		{
			"constant": false,
			"inputs": [
				{
					"internalType": "string",
					"name": "_nickname",
					"type": "string"
				}
			],
			"name": "createUser",
			"outputs": [],
			"payable": false,
			"stateMutability": "nonpayable",
			"type": "function"
		},
		{
			"constant": true,
			"inputs": [],
			"name": "queueDetails",
			"outputs": [
				{
					"internalType": "uint256",
					"name": "",
					"type": "uint256"
				}
			],
			"payable": false,
			"stateMutability": "view",
			"type": "function"
		},
		{
			"constant": false,
			"inputs": [
				{
					"internalType": "bytes",
					"name": "_metaData",
					"type": "bytes"
				},
				{
					"internalType": "uint256",
					"name": "_playerFund",
					"type": "uint256"
				}
			],
			"name": "playUser",
			"outputs": [
				{
					"components": [
						{
							"components": [
								{
									"internalType": "string",
									"name": "nickname",
									"type": "string"
								},
								{
									"internalType": "address",
									"name": "owner",
									"type": "address"
								}
							],
							"internalType": "struct Zoom.user[]",
							"name": "players",
							"type": "tuple[]"
						},
						{
							"internalType": "uint256[]",
							"name": "playerFunds",
							"type": "uint256[]"
						},
						{
							"internalType": "bytes",
							"name": "metadata",
							"type": "bytes"
						}
					],
					"internalType": "struct Zoom.gameDetails",
					"name": "",
					"type": "tuple"
				}
			],
			"payable": false,
			"stateMutability": "nonpayable",
			"type": "function"
		},
		{
			"constant": true,
			"inputs": [],
			"name": "getUserDetails",
			"outputs": [
				{
					"components": [
						{
							"internalType": "string",
							"name": "nickname",
							"type": "string"
						},
						{
							"internalType": "address",
							"name": "owner",
							"type": "address"
						}
					],
					"internalType": "struct Zoom.user",
					"name": "",
					"type": "tuple"
				}
			],
			"payable": false,
			"stateMutability": "view",
			"type": "function"
		},
		{
			"constant": true,
			"inputs": [],
			"name": "getplayerslength",
			"outputs": [
				{
					"internalType": "uint256",
					"name": "",
					"type": "uint256"
				}
			],
			"payable": false,
			"stateMutability": "view",
			"type": "function"
		},
		{
			"constant": true,
			"inputs": [
				{
					"internalType": "address",
					"name": "_address",
					"type": "address"
				}
			],
			"name": "getUserDetailsbyaddress",
			"outputs": [
				{
					"components": [
						{
							"internalType": "string",
							"name": "nickname",
							"type": "string"
						},
						{
							"internalType": "address",
							"name": "owner",
							"type": "address"
						}
					],
					"internalType": "struct Zoom.user",
					"name": "",
					"type": "tuple"
				}
			],
			"payable": false,
			"stateMutability": "view",
			"type": "function"
		},
		{
			"constant": true,
			"inputs": [],
			"name": "getGameDetails",
			"outputs": [
				{
					"components": [
						{
							"components": [
								{
									"internalType": "string",
									"name": "nickname",
									"type": "string"
								},
								{
									"internalType": "address",
									"name": "owner",
									"type": "address"
								}
							],
							"internalType": "struct Zoom.user[]",
							"name": "players",
							"type": "tuple[]"
						},
						{
							"internalType": "uint256[]",
							"name": "playerFunds",
							"type": "uint256[]"
						},
						{
							"internalType": "bytes",
							"name": "metadata",
							"type": "bytes"
						}
					],
					"internalType": "struct Zoom.gameDetails",
					"name": "",
					"type": "tuple"
				}
			],
			"payable": false,
			"stateMutability": "view",
			"type": "function"
		},
		{
			"constant": true,
			"inputs": [],
			"name": "getQueueDetails",
			"outputs": [
				{
					"internalType": "uint256",
					"name": "",
					"type": "uint256"
				}
			],
			"payable": false,
			"stateMutability": "view",
			"type": "function"
		}
	],
	"bytecode": "0x6080604052600080805560018055600255600380546001600160a01b031916733e4096134cff4a984397be7111cffa99e676572d17905534801561004257600080fd5b506115bb806100526000396000f3fe608060405234801561001057600080fd5b50600436106100935760003560e01c806350fc2c611161006657806350fc2c611461010b578063942886be14610113578063a5a30a3f1461011b578063a87430ba14610123578063bcc17214146100e157610093565b80630662bf00146100985780630e6502e7146100c15780632e6a7ff0146100e1578063507ffba5146100f6575b600080fd5b6100ab6100a6366004610eaa565b610144565b6040516100b8919061140a565b60405180910390f35b6100d46100cf366004610e84565b610826565b6040516100b8919061142c565b6100e96108f8565b6040516100b8919061143d565b610109610104366004610efb565b6108ff565b005b6100ab610946565b6100d4610b4b565b6100e9610c13565b610136610131366004610e84565b610c19565b6040516100b89291906113ea565b61014c610cc9565b600054610440576001805460009081526005602090815260408083203384526004835290832081548086018084558386529390942081549295939491936002928302909101926101b092849286926101009181161591909102600019011604610cea565b5060019182015490820180546001600160a01b0319166001600160a01b03909216919091179055828101805491820181556000908152602090819020909101859055855161020692506002840191870190610d6f565b50600180546000819055810190556040517fdad80a0dcaf2d9541de11f4b45fbc2cfbf4a0dff7e873773deb3bc8cbf49b9cc9061024490839061141b565b60405180910390a16040805182546080602082028301810190935260608201818152919284928492909184919060009085015b828210156103465760008481526020908190206040805160028681029093018054600181161561010002600019011693909304601f81018590049094028101606090810183529181018481529093849284919084018282801561031b5780601f106102f05761010080835404028352916020019161031b565b820191906000526020600020905b8154815290600101906020018083116102fe57829003601f168201915b50505091835250506001918201546001600160a01b0316602091820152918352929092019101610277565b5050505081526020016001820180548060200260200160405190810160405280929190818152602001828054801561039d57602002820191906000526020600020905b815481526020019060010190808311610389575b5050509183525050600282810180546040805160206001841615610100026000190190931694909404601f8101839004830285018301909152808452938101939083018282801561042f5780601f106104045761010080835404028352916020019161042f565b820191906000526020600020905b81548152906001019060200180831161041257829003601f168201915b505050505081525050915050610820565b600080546002818155828055908252600560209081526040808420338552600483529084208154600181810180855584885294909620825493969495929491830201926104a192849286926101009181161591909102600019011604610cea565b5060019182015490820180546001600160a01b0319166001600160a01b0390921691909117905582810180549182018155600090815260209081902090910185905585516104f792506002840191870190610d6f565b5080546040805182815260208084028201019091526060918015610525578160200160208202803883390190505b50905060005b82548110156105945782600001818154811061054357fe5b906000526020600020906002020160010160009054906101000a90046001600160a01b031682828151811061057457fe5b6001600160a01b039092166020928302919091019091015260010161052b565b50600354604051638a3dab8960e01b81526001600160a01b03909116908190638a3dab89906105db9064307831323360d81b908690600189019060028a01906004016113a2565b602060405180830381600087803b1580156105f557600080fd5b505af1158015610609573d6000803e3d6000fd5b505050506040513d601f19601f8201168201806040525061062d9190810190610f30565b506040805184546080602082028301810190935260608201818152919286928492909184919060009085015b828210156107285760008481526020908190206040805160028681029093018054600181161561010002600019011693909304601f8101859004909402810160609081018352918101848152909384928491908401828280156106fd5780601f106106d2576101008083540402835291602001916106fd565b820191906000526020600020905b8154815290600101906020018083116106e057829003601f168201915b50505091835250506001918201546001600160a01b0316602091820152918352929092019101610659565b5050505081526020016001820180548060200260200160405190810160405280929190818152602001828054801561077f57602002820191906000526020600020905b81548152602001906001019080831161076b575b5050509183525050600282810180546040805160206001841615610100026000190190931694909404601f810183900483028501830190915280845293810193908301828280156108115780601f106107e657610100808354040283529160200191610811565b820191906000526020600020905b8154815290600101906020018083116107f457829003601f168201915b50505050508152505093505050505b92915050565b61082e610ddd565b6001600160a01b0382166000908152600460209081526040918290208251815460026001821615610100026000190190911604601f81018490049093028101606090810185529381018381529093919284928491908401828280156108d45780601f106108a9576101008083540402835291602001916108d4565b820191906000526020600020905b8154815290600101906020018083116108b757829003601f168201915b5050509183525050600191909101546001600160a01b031660209091015292915050565b6000545b90565b336000908152600460209081526040909120825161091f92840190610d6f565b505033600081815260046020526040902060010180546001600160a01b0319169091179055565b61094e610cc9565b6000805481526005602090815260408083208151815460809481028201850190935260608101838152909491938593919285929185015b82821015610a545760008481526020908190206040805160028681029093018054600181161561010002600019011693909304601f810185900490940281016060908101835291810184815290938492849190840182828015610a295780601f106109fe57610100808354040283529160200191610a29565b820191906000526020600020905b815481529060010190602001808311610a0c57829003601f168201915b50505091835250506001918201546001600160a01b0316602091820152918352929092019101610985565b50505050815260200160018201805480602002602001604051908101604052809291908181526020018280548015610aab57602002820191906000526020600020905b815481526020019060010190808311610a97575b5050509183525050600282810180546040805160206001841615610100026000190190931694909404601f81018390048302850183019091528084529381019390830182828015610b3d5780601f10610b1257610100808354040283529160200191610b3d565b820191906000526020600020905b815481529060010190602001808311610b2057829003601f168201915b505050505081525050905090565b610b53610ddd565b336000908152600460209081526040918290208251815460026001821615610100026000190190911604601f8101849004909302810160609081018552938101838152909391928492849190840182828015610bf05780601f10610bc557610100808354040283529160200191610bf0565b820191906000526020600020905b815481529060010190602001808311610bd357829003601f168201915b5050509183525050600191909101546001600160a01b0316602090910152905090565b60025490565b60046020908152600091825260409182902080548351601f60026000196101006001861615020190931692909204918201849004840281018401909452808452909291839190830182828015610cb05780601f10610c8557610100808354040283529160200191610cb0565b820191906000526020600020905b815481529060010190602001808311610c9357829003601f168201915b505050600190930154919250506001600160a01b031682565b60405180606001604052806060815260200160608152602001606081525090565b828054600181600116156101000203166002900490600052602060002090601f016020900481019282601f10610d235780548555610d5f565b82800160010185558215610d5f57600052602060002091601f016020900482015b82811115610d5f578254825591600101919060010190610d44565b50610d6b929150610df5565b5090565b828054600181600116156101000203166002900490600052602060002090601f016020900481019282601f10610db057805160ff1916838001178555610d5f565b82800160010185558215610d5f579182015b82811115610d5f578251825591602001919060010190610dc2565b60408051808201909152606081526000602082015290565b6108fc91905b80821115610d6b5760008155600101610dfb565b803561082081611558565b600082601f830112610e2b57600080fd5b8135610e3e610e3982611472565b61144b565b91508082526020830160208301858383011115610e5a57600080fd5b610e658382846114e0565b50505092915050565b80356108208161156f565b80516108208161156f565b600060208284031215610e9657600080fd5b6000610ea28484610e0f565b949350505050565b60008060408385031215610ebd57600080fd5b823567ffffffffffffffff811115610ed457600080fd5b610ee085828601610e1a565b9250506020610ef185828601610e6e565b9150509250929050565b600060208284031215610f0d57600080fd5b813567ffffffffffffffff811115610f2457600080fd5b610ea284828501610e1a565b600060208284031215610f4257600080fd5b6000610ea28484610e79565b6000610f5a8383610f8d565b505060200190565b6000610f6e838361132d565b9392505050565b6000610f6e8383611362565b6000610f5a83836111bb565b610f96816114d5565b82525050565b6000610fa7826114ac565b610fb181856114c0565b9350610fbc8361149a565b8060005b83811015610fea578151610fd48882610f4e565b9750610fdf8361149a565b925050600101610fc0565b509495945050505050565b6000611000826114ac565b61100a81856114c0565b93508360208202850161101c8561149a565b8060005b8581101561105657848403895281516110398582610f62565b94506110448361149a565b60209a909a0199925050600101611020565b5091979650505050505050565b600061106e826114b0565b61107881856114c0565b93508360208202850161108a856114a0565b8060005b85811015611056578484038952816110a68582610f75565b94506110b1836114b4565b60209a909a019992505060010161108e565b60006110ce826114ac565b6110d881856114c0565b93506110e38361149a565b8060005b83811015610fea5781516110fb8882610f81565b97506111068361149a565b9250506001016110e7565b600061111c826114b0565b61112681856114c0565b9350611131836114a0565b8060005b83811015610fea5761114682611542565b6111508882610f81565b975061115b836114ba565b925050600101611135565b6000611171826114b0565b61117b81856114c0565b9350611186836114a0565b8060005b83811015610fea5761119b82611542565b6111a58882610f81565b97506111b0836114ba565b92505060010161118a565b610f96816108fc565b60006111cf826114ac565b6111d981856114c0565b93506111e98185602086016114ec565b6111f28161154e565b9093019392505050565b600081546001811660008114611219576001811461123f5761127e565b607f600283041661122a81876114c0565b60ff198416815295505060208501925061127e565b6002820461124d81876114c0565b9550611258856114a0565b60005b828110156112775781548882015260019091019060200161125b565b8701945050505b505092915050565b805160608084526000919084019061129e8282610ff5565b915050602083015184820360208601526112b882826110c3565b915050604083015184820360408601526112d282826111c4565b95945050505050565b6060808352600090830181836112f18382611063565b92505060018401858303602087015261130a8382611111565b92505060028401858303604087015261132383826111fc565b9695505050505050565b805160408084526000919084019061134582826111c4565b915050602083015161135a6020860182610f8d565b509392505050565b60408083526000908301818361137883826111fc565b9250506001840154905061138b8161151c565b6113986020870182610f8d565b5090949350505050565b608081016113b082876111bb565b81810360208301526113c28186610f9c565b905081810360408301526113d68185611166565b9050818103606083015261132381846111fc565b604080825281016113fb81856111c4565b9050610f6e6020830184610f8d565b60208082528101610f6e8184611286565b60208082528101610f6e81846112db565b60208082528101610f6e818461132d565b6020810161082082846111bb565b60405181810167ffffffffffffffff8111828210171561146a57600080fd5b604052919050565b600067ffffffffffffffff82111561148957600080fd5b506020601f91909101601f19160190565b60200190565b60009081526020902090565b5190565b5490565b60020190565b60010190565b90815260200190565b6001600160a01b031690565b6000610820826114c9565b82818337506000910152565b60005b838110156115075781810151838201526020016114ef565b83811115611516576000848401525b50505050565b600061082061152a836108fc565b6114c9565b600061082061153d836108fc565b6108fc565b6000610820825461152f565b601f01601f191690565b611561816114d5565b811461156c57600080fd5b50565b611561816108fc56fea365627a7a72315820d49f786bd438430c62be33f91d44e8b6640730765a9259f33699fc8dd158a9106c6578706572696d656e74616cf564736f6c63430005100040",
	"source": "pragma solidity >=0.5.16;\npragma experimental ABIEncoderV2;\n\n//import \"./TurnBasedGame.sol\";\n\ncontract Zoom {\n    // The queue for waiting area\n    uint256 queue = 0;\n    uint256 number = 1;\n    uint256 temp = 0;\n\n    // holds the template hash for the Cartesi Machine computation that runs the Texas Holdem poker game\n    bytes32 constant texasHoldemTemplateHash = \"0x123\";\n    address addr = 0x3e4096134cfF4A984397BE7111CFFa99E676572D;\n\n    // Records details of users waiting to play\n    struct gameDetails {\n        // details of both players\n        user[] players;\n        // funds for both playes\n        uint256[] playerFunds;\n        // metadata for the game\n        bytes metadata;\n    }\n\n    // Records information of a user\n    struct user {\n        // stores nickname as metadata\n        string nickname;\n        // stores user address\n        address owner;\n    }\n\n    // User instances\n    mapping(address => user) public users;\n    mapping(uint256 => gameDetails) internal allGames;\n    \n    event GameWaitArea(gameDetails game);\n\n    // @notice To create new User\n    // @params nickname (metadata)\n    function createUser(string memory _nickname) public {\n        users[msg.sender].nickname = _nickname;\n        users[msg.sender].owner = msg.sender;\n    }\n\n    // @notice to get details about queue\n    function queueDetails() public view returns (uint256) { \n        //get queue status\n        return queue;\n    }\n\n    // @notice players coming to play game\n    // @params _metaData stores the encrypted data for card\n    // @params _playerFund stores the amount which player is staking\n    function playUser(bytes memory _metaData, uint256 _playerFund)\n        public\n        returns (gameDetails memory)\n    {\n        //if no one is waiting\n        if (queue == 0) {\n            // creates new game\n            gameDetails storage game = allGames[number];\n            game.players.push(users[msg.sender]);\n            game.playerFunds.push(_playerFund);\n            game.metadata = _metaData;\n\n            // to record that queue is not empty\n            // number is the game instance to which user is waiting\n            queue = number;\n            number++;\n            \n            emit GameWaitArea(game);\n            return game;\n            \n            \n            \n\n            //if someone is already waiting\n        } else {\n            //second user registers and play game\n\n            // stores the number in which game instance user is waiting\n            temp = queue;\n            \n            queue = 0;\n\n            // Records the second user details\n            gameDetails storage game = allGames[temp];\n            game.players.push(users[msg.sender]);\n            game.playerFunds.push(_playerFund);\n            game.metadata = _metaData;\n\n            address[] memory add = new address[](game.players.length);\n            \n            for (uint256 i = 0; i < game.players.length; i++) {\n                add[i] = game.players[i].owner;\n                \n            }\n\n            TurnBasedGame c = TurnBasedGame(addr);\n            c.startGame(\n                texasHoldemTemplateHash,\n                add,\n                game.playerFunds,\n                game.metadata\n            );\n            \n\n            return game;\n        }\n    }\n\n    // @notice to get user details\n    function getUserDetails() public view returns (user memory) {\n        return users[msg.sender];\n    }\n    \n    \n    function getplayerslength() public view returns (uint256) {\n        return temp;\n    }\n    \n    // @notice to get user details\n    function getUserDetailsbyaddress(address _address) public view returns (user memory) {\n        return users[_address];\n    }\n\n    // @notice to get game details with waiting players\n    function getGameDetails() public view returns (gameDetails memory) {\n        return allGames[queue];\n    }\n\n    // @notice get queue details\n    function getQueueDetails() public view returns (uint256) {\n        return queue;\n    }\n\n}\n\ninterface TurnBasedGame {\n    struct Turn {\n        address player;\n        bytes32 stateHash;\n        uint256 dataLogIndex;\n    }\n\n    struct GameContext {\n        bytes32 templateHash;\n        address[] players;\n        uint256[] playerFunds;\n        bytes metadata;\n        Turn[] turns;\n        uint256 descartesIndex;\n    }\n\n    event GameReady(uint256 _index, GameContext _context);\n    event TurnOver(uint256 _index, Turn _turn);\n    event GameEndClaimed(uint256 _index, uint256 _descartesIndex);\n    event GameOver(uint256 _index, uint256[] _potShare);\n\n    function startGame(\n        bytes32 _templateHash,\n        address[] calldata _players,\n        uint256[] calldata _playerFunds,\n        bytes calldata _metadata\n    ) external returns (uint256);\n\n    function submitTurn(\n        uint256 _index,\n        bytes32 _stateHash,\n        bytes8[] calldata _data\n    ) external;\n\n    function claimGameEnd(uint256 _index) external;\n\n    function applyResult(uint256 _index) external;\n\n    function getContext(uint256 _index)\n        external\n        view\n        returns (GameContext memory);\n\n    function isConcerned(uint256 _index, address _player)\n        external\n        view\n        returns (bool);\n\n    function getSubInstances(uint256 _index, address)\n        external\n        view\n        returns (address[] memory _addresses, uint256[] memory _indices);\n}",
	"sourcePath": "/Users/aveeshshetty/Desktop/poker-contracts/contracts/Zoom.sol",
	"compiler": {
		"name": "solc",
		"version": "0.5.16+commit.9c3226ce.Emscripten.clang"
	},
	"schemaVersion": "3.2.5",
	"updatedAt": "2020-11-25T17:35:25.710Z",
	"networkType": "ethereum",
	"devdoc": {
		"methods": {}
	},
	"userdoc": {
		"methods": {}
	}
}