{
  "contractName": "Descartes",
  "abi": [
    {
      "inputs": [
        {
          "internalType": "address",
          "name": "_liAddress",
          "type": "address"
        },
        {
          "internalType": "address",
          "name": "_vgAddress",
          "type": "address"
        },
        {
          "internalType": "address",
          "name": "_machineAddress",
          "type": "address"
        }
      ],
      "payable": false,
      "stateMutability": "nonpayable",
      "type": "constructor"
    },
    {
      "anonymous": false,
      "inputs": [
        {
          "indexed": false,
          "internalType": "uint256",
          "name": "_index",
          "type": "uint256"
        }
      ],
      "name": "ChallengeStarted",
      "type": "event"
    },
    {
      "anonymous": false,
      "inputs": [
        {
          "indexed": false,
          "internalType": "uint256",
          "name": "_index",
          "type": "uint256"
        },
        {
          "indexed": false,
          "internalType": "bytes32",
          "name": "_claimedFinalHash",
          "type": "bytes32"
        }
      ],
      "name": "ClaimSubmitted",
      "type": "event"
    },
    {
      "anonymous": false,
      "inputs": [
        {
          "indexed": false,
          "internalType": "uint256",
          "name": "_index",
          "type": "uint256"
        }
      ],
      "name": "DescartesCreated",
      "type": "event"
    },
    {
      "anonymous": false,
      "inputs": [
        {
          "indexed": false,
          "internalType": "uint256",
          "name": "_index",
          "type": "uint256"
        },
        {
          "indexed": false,
          "internalType": "uint8",
          "name": "_state",
          "type": "uint8"
        }
      ],
      "name": "DescartesFinished",
      "type": "event"
    },
    {
      "anonymous": false,
      "inputs": [
        {
          "indexed": false,
          "internalType": "uint256",
          "name": "_index",
          "type": "uint256"
        },
        {
          "components": [
            {
              "internalType": "uint64",
              "name": "position",
              "type": "uint64"
            },
            {
              "internalType": "uint64",
              "name": "driveLog2Size",
              "type": "uint64"
            },
            {
              "internalType": "bytes",
              "name": "directValue",
              "type": "bytes"
            },
            {
              "internalType": "bytes32",
              "name": "loggerRootHash",
              "type": "bytes32"
            },
            {
              "internalType": "address",
              "name": "provider",
              "type": "address"
            },
            {
              "internalType": "bool",
              "name": "waitsProvider",
              "type": "bool"
            },
            {
              "internalType": "bool",
              "name": "needsLogger",
              "type": "bool"
            }
          ],
          "indexed": false,
          "internalType": "struct DescartesInterface.Drive",
          "name": "_drive",
          "type": "tuple"
        }
      ],
      "name": "DriveInserted",
      "type": "event"
    },
    {
      "anonymous": false,
      "inputs": [
        {
          "indexed": false,
          "internalType": "uint256",
          "name": "_index",
          "type": "uint256"
        }
      ],
      "name": "ResultConfirmed",
      "type": "event"
    },
    {
      "constant": true,
      "inputs": [],
      "name": "currentIndex",
      "outputs": [
        {
          "internalType": "uint256",
          "name": "",
          "type": "uint256"
        }
      ],
      "payable": false,
      "stateMutability": "view",
      "type": "function"
    },
    {
      "constant": true,
      "inputs": [
        {
          "internalType": "uint256",
          "name": "_index",
          "type": "uint256"
        }
      ],
      "name": "getNonce",
      "outputs": [
        {
          "internalType": "uint256",
          "name": "currentNonce",
          "type": "uint256"
        }
      ],
      "payable": false,
      "stateMutability": "view",
      "type": "function"
    },
    {
      "constant": true,
      "inputs": [
        {
          "internalType": "uint256",
          "name": "_index",
          "type": "uint256"
        }
      ],
      "name": "isActive",
      "outputs": [
        {
          "internalType": "bool",
          "name": "",
          "type": "bool"
        }
      ],
      "payable": false,
      "stateMutability": "view",
      "type": "function"
    },
    {
      "constant": false,
      "inputs": [
        {
          "internalType": "uint256",
          "name": "_finalTime",
          "type": "uint256"
        },
        {
          "internalType": "bytes32",
          "name": "_templateHash",
          "type": "bytes32"
        },
        {
          "internalType": "uint64",
          "name": "_outputPosition",
          "type": "uint64"
        },
        {
          "internalType": "uint64",
          "name": "_outputLog2Size",
          "type": "uint64"
        },
        {
          "internalType": "uint256",
          "name": "_roundDuration",
          "type": "uint256"
        },
        {
          "internalType": "address",
          "name": "_claimer",
          "type": "address"
        },
        {
          "internalType": "address",
          "name": "_challenger",
          "type": "address"
        },
        {
          "components": [
            {
              "internalType": "uint64",
              "name": "position",
              "type": "uint64"
            },
            {
              "internalType": "uint64",
              "name": "driveLog2Size",
              "type": "uint64"
            },
            {
              "internalType": "bytes",
              "name": "directValue",
              "type": "bytes"
            },
            {
              "internalType": "bytes32",
              "name": "loggerRootHash",
              "type": "bytes32"
            },
            {
              "internalType": "address",
              "name": "provider",
              "type": "address"
            },
            {
              "internalType": "bool",
              "name": "waitsProvider",
              "type": "bool"
            },
            {
              "internalType": "bool",
              "name": "needsLogger",
              "type": "bool"
            }
          ],
          "internalType": "struct DescartesInterface.Drive[]",
          "name": "_inputDrives",
          "type": "tuple[]"
        }
      ],
      "name": "instantiate",
      "outputs": [
        {
          "internalType": "uint256",
          "name": "",
          "type": "uint256"
        }
      ],
      "payable": false,
      "stateMutability": "nonpayable",
      "type": "function"
    },
    {
      "constant": false,
      "inputs": [
        {
          "internalType": "uint256",
          "name": "_index",
          "type": "uint256"
        }
      ],
      "name": "confirm",
      "outputs": [],
      "payable": false,
      "stateMutability": "nonpayable",
      "type": "function"
    },
    {
      "constant": false,
      "inputs": [
        {
          "internalType": "uint256",
          "name": "_index",
          "type": "uint256"
        }
      ],
      "name": "challenge",
      "outputs": [],
      "payable": false,
      "stateMutability": "nonpayable",
      "type": "function"
    },
    {
      "constant": false,
      "inputs": [
        {
          "internalType": "uint256",
          "name": "_index",
          "type": "uint256"
        },
        {
          "internalType": "bytes32",
          "name": "_claimedFinalHash",
          "type": "bytes32"
        },
        {
          "internalType": "bytes32[][]",
          "name": "_drivesSiblings",
          "type": "bytes32[][]"
        },
        {
          "internalType": "bytes",
          "name": "_output",
          "type": "bytes"
        },
        {
          "internalType": "bytes32[]",
          "name": "_outputSiblings",
          "type": "bytes32[]"
        }
      ],
      "name": "submitClaim",
      "outputs": [],
      "payable": false,
      "stateMutability": "nonpayable",
      "type": "function"
    },
    {
      "constant": true,
      "inputs": [
        {
          "internalType": "uint256",
          "name": "_index",
          "type": "uint256"
        },
        {
          "internalType": "address",
          "name": "_user",
          "type": "address"
        }
      ],
      "name": "isConcerned",
      "outputs": [
        {
          "internalType": "bool",
          "name": "",
          "type": "bool"
        }
      ],
      "payable": false,
      "stateMutability": "view",
      "type": "function"
    },
    {
      "constant": true,
      "inputs": [
        {
          "internalType": "uint256",
          "name": "_index",
          "type": "uint256"
        },
        {
          "internalType": "address",
          "name": "",
          "type": "address"
        }
      ],
      "name": "getState",
      "outputs": [
        {
          "internalType": "uint256[]",
          "name": "",
          "type": "uint256[]"
        },
        {
          "internalType": "address[]",
          "name": "",
          "type": "address[]"
        },
        {
          "internalType": "bytes32[]",
          "name": "",
          "type": "bytes32[]"
        },
        {
          "internalType": "bytes",
          "name": "",
          "type": "bytes"
        },
        {
          "components": [
            {
              "internalType": "uint64",
              "name": "position",
              "type": "uint64"
            },
            {
              "internalType": "uint64",
              "name": "driveLog2Size",
              "type": "uint64"
            },
            {
              "internalType": "bytes",
              "name": "directValue",
              "type": "bytes"
            },
            {
              "internalType": "bytes32",
              "name": "loggerRootHash",
              "type": "bytes32"
            },
            {
              "internalType": "address",
              "name": "provider",
              "type": "address"
            },
            {
              "internalType": "bool",
              "name": "waitsProvider",
              "type": "bool"
            },
            {
              "internalType": "bool",
              "name": "needsLogger",
              "type": "bool"
            }
          ],
          "internalType": "struct DescartesInterface.Drive[]",
          "name": "",
          "type": "tuple[]"
        }
      ],
      "payable": false,
      "stateMutability": "view",
      "type": "function"
    },
    {
      "constant": true,
      "inputs": [
        {
          "internalType": "uint256",
          "name": "_index",
          "type": "uint256"
        }
      ],
      "name": "getCurrentState",
      "outputs": [
        {
          "internalType": "bytes32",
          "name": "",
          "type": "bytes32"
        }
      ],
      "payable": false,
      "stateMutability": "view",
      "type": "function"
    },
    {
      "constant": true,
      "inputs": [
        {
          "internalType": "uint256",
          "name": "_index",
          "type": "uint256"
        },
        {
          "internalType": "address",
          "name": "",
          "type": "address"
        }
      ],
      "name": "getSubInstances",
      "outputs": [
        {
          "internalType": "address[]",
          "name": "_addresses",
          "type": "address[]"
        },
        {
          "internalType": "uint256[]",
          "name": "_indices",
          "type": "uint256[]"
        }
      ],
      "payable": false,
      "stateMutability": "view",
      "type": "function"
    },
    {
      "constant": false,
      "inputs": [
        {
          "internalType": "uint256",
          "name": "_index",
          "type": "uint256"
        },
        {
          "internalType": "bytes",
          "name": "_value",
          "type": "bytes"
        }
      ],
      "name": "provideDirectDrive",
      "outputs": [],
      "payable": false,
      "stateMutability": "nonpayable",
      "type": "function"
    },
    {
      "constant": false,
      "inputs": [
        {
          "internalType": "uint256",
          "name": "_index",
          "type": "uint256"
        },
        {
          "internalType": "bytes32",
          "name": "_root",
          "type": "bytes32"
        }
      ],
      "name": "provideLoggerDrive",
      "outputs": [],
      "payable": false,
      "stateMutability": "nonpayable",
      "type": "function"
    },
    {
      "constant": false,
      "inputs": [
        {
          "internalType": "uint256",
          "name": "_index",
          "type": "uint256"
        }
      ],
      "name": "revealLoggerDrive",
      "outputs": [],
      "payable": false,
      "stateMutability": "nonpayable",
      "type": "function"
    },
    {
      "constant": false,
      "inputs": [
        {
          "internalType": "uint256",
          "name": "_index",
          "type": "uint256"
        }
      ],
      "name": "winByVG",
      "outputs": [],
      "payable": false,
      "stateMutability": "nonpayable",
      "type": "function"
    },
    {
      "constant": false,
      "inputs": [
        {
          "internalType": "uint256",
          "name": "_index",
          "type": "uint256"
        }
      ],
      "name": "destruct",
      "outputs": [],
      "payable": false,
      "stateMutability": "nonpayable",
      "type": "function"
    },
    {
      "constant": false,
      "inputs": [
        {
          "internalType": "uint256",
          "name": "_index",
          "type": "uint256"
        }
      ],
      "name": "abortByDeadline",
      "outputs": [],
      "payable": false,
      "stateMutability": "nonpayable",
      "type": "function"
    },
    {
      "constant": true,
      "inputs": [
        {
          "internalType": "uint256",
          "name": "_index",
          "type": "uint256"
        }
      ],
      "name": "getResult",
      "outputs": [
        {
          "internalType": "bool",
          "name": "",
          "type": "bool"
        },
        {
          "internalType": "bool",
          "name": "",
          "type": "bool"
        },
        {
          "internalType": "address",
          "name": "",
          "type": "address"
        },
        {
          "internalType": "bytes",
          "name": "",
          "type": "bytes"
        }
      ],
      "payable": false,
      "stateMutability": "view",
      "type": "function"
    }
  ],
  "bytecode": "0x6080604052600080553480156200001557600080fd5b5060405162005a3138038062005a3183398101604081905262000038916200008f565b600380546001600160a01b03199081166001600160a01b0393841617909155600580548216938316939093179092556004805490921692169190911790556200010f565b80516200008981620000f5565b92915050565b600080600060608486031215620000a557600080fd5b6000620000b386866200007c565b9350506020620000c6868287016200007c565b9250506040620000d9868287016200007c565b9150509250925092565b60006001600160a01b03821662000089565b6200010081620000e3565b81146200010c57600080fd5b50565b615912806200011f6000396000f3fe608060405234801561001057600080fd5b50600436106101165760003560e01c8063995e4339116100a2578063c70683ca11610071578063c70683ca1461025b578063c87e3ae91461026e578063ded4df6314610281578063f9bc3b2114610294578063fa0ecc5b146102a757610116565b8063995e4339146101f1578063ab82d9a014610214578063ba0179b514610227578063c526656c1461023a57610116565b80634c6fe7bf116100e95780634c6fe7bf146101815780635748c1301461019457806373df1612146101a757806382afd23b146101cb57806396570981146101de57610116565b806301ff62ab1461011b57806326987b6014610144578063351e6657146101595780633d46b8191461016e575b600080fd5b61012e61012936600461427f565b6102ba565b60405161013b91906153ca565b60405180910390f35b61014c610738565b60405161013b919061541c565b61016c6101673660046142e9565b61073e565b005b61014c61017c366004614243565b610aa3565b61016c61018f366004614243565b610b04565b61014c6101a2366004614243565b610c81565b6101ba6101b536600461427f565b610e5f565b60405161013b95949392919061535e565b61012e6101d9366004614243565b611612565b61014c6101ec3660046143a3565b61162a565b6102046101ff366004614243565b611bcd565b60405161013b94939291906153d8565b61016c610222366004614243565b61221e565b61016c610235366004614243565b6123dc565b61024d61024836600461427f565b6124d7565b60405161013b929190615339565b61016c6102693660046142b9565b6125f4565b61016c61027c366004614243565b6129e6565b61016c61028f366004614243565b612b5d565b61016c6102a2366004614243565b612d48565b61016c6102b536600461446a565b613029565b60008280600054116102e75760405162461bcd60e51b81526004016102de906155f5565b60405180910390fd5b6102ef613c85565b60008581526006602081815260409283902083516102a08101855281546001600160a01b0381168252600160a01b900460ff161515818401526001808301548287015260028084015460608401526003840154608084015260048401546001600160401b0380821660a0860152600160401b9091041660c0840152600584015460e08401529483015461010080840191909152600784015461012084015260088401546101408401526009840154610160840152600a840154610180840152600b840180548851938116159092026000190190911695909504601f8101859004850282018501909652858152909491936101a08601939192909183018282801561043a5780601f1061040f5761010080835404028352916020019161043a565b820191906000526020600020905b81548152906001019060200180831161041d57829003601f168201915b5050509183525050600c8201546001600160a01b039081166020830152600d8301549081166040830152606090910190600160a01b900460ff16600981111561047f57fe5b600981111561048a57fe5b8152602001600e82018054806020026020016040519081016040528092919081815260200182805480156104dd57602002820191906000526020600020905b8154815260200190600101908083116104c9575b50505050508152602001600f820180548060200260200160405190810160405280929190818152602001828054801561053557602002820191906000526020600020905b815481526020019060010190808311610521575b505050505081526020016010820180548060200260200160405190810160405280929190818152602001828054801561058d57602002820191906000526020600020905b815481526020019060010190808311610579575b5050505050815260200160118201805480602002602001604051908101604052809291908181526020016000905b828210156106ea5760008481526020908190206040805160e0810182526004860290920180546001600160401b038082168552600160401b9091041683850152600180820180548451600261010094831615949094026000190190911692909204601f810187900487028301870185528083529495929493860193919290919083018282801561068c5780601f106106615761010080835404028352916020019161068c565b820191906000526020600020905b81548152906001019060200180831161066f57829003601f168201915b505050918352505060028201546020808301919091526003909201546001600160a01b038116604083015260ff600160a01b8204811615156060840152600160a81b90910416151560809091015290825260019290920191016105bb565b50505050815250509050806101c001516001600160a01b0316846001600160a01b0316148061072f5750806101e001516001600160a01b0316846001600160a01b0316145b95945050505050565b60005481565b8480600054116107605760405162461bcd60e51b81526004016102de906155f5565b6000868152600660205260409020600c01546001600160a01b031633811461079a5760405162461bcd60e51b81526004016102de90615595565b6000878152600260209081526040808320805460010190556006909152902087906004600d820154600160a01b900460ff1660098111156107d757fe5b146107f45760405162461bcd60e51b81526004016102de906154c5565b86516011820154146108185760405162461bcd60e51b81526004016102de90615495565b60048101548651600160401b9091046001600160401b0390811660020a16146108535760405162461bcd60e51b81526004016102de90615645565b606061085e876134ff565b6004830154909150899061088f906001600160401b0380821691600160401b900416610889856135dd565b8a6136f2565b146108ac5760405162461bcd60e51b81526004016102de90615445565b601182015460005b81811015610a2a5783600901546109768560110183815481106108d357fe5b60009182526020909120600490910201546011870180546001600160401b03909216918590811061090057fe5b906000526020600020906004020160000160089054906101000a90046001600160401b031661095d88601101868154811061093757fe5b6000918252602090912060049091020154600160401b90046001600160401b031661385d565b8e868151811061096957fe5b60200260200101516136f2565b146109935760405162461bcd60e51b81526004016102de90615465565b610a1d8460110182815481106109a557fe5b60009182526020909120600490910201546011860180546001600160401b0390921691849081106109d257fe5b906000526020600020906004020160000160089054906101000a90046001600160401b0316866010018481548110610a0657fe5b90600052602060002001548d858151811061096957fe5b60098501556001016108b4565b50600a83018a9055600d8301805460ff60a01b1916600560a01b1790558751610a5c90600b85019060208b0190613d2d565b507f1e9358f673ff367487ce56f136412ae5b69bf2c06e223aad2756d748c2a9b52a8b8b604051610a8e9291906156a5565b60405180910390a15050505050505050505050565b6000818060005411610ac75760405162461bcd60e51b81526004016102de906155f5565b610ad081611612565b610aec5760405162461bcd60e51b81526004016102de90615485565b60008381526002602052604090205491505b50919050565b808060005411610b265760405162461bcd60e51b81526004016102de906155f5565b600082815260066020526040812090610b3e8461391a565b8260060154014211905080610b655760405162461bcd60e51b81526004016102de90615505565b6000600d830154600160a01b900460ff166009811115610b8157fe5b1415610bab57600d820180546001919060ff60a01b1916600160a01b835b02179055505050610c7d565b6002600d830154600160a01b900460ff166009811115610bc757fe5b1415610be957600d820180546001919060ff60a01b1916600160a01b83610b9f565b6004600d830154600160a01b900460ff166009811115610c0557fe5b1415610c2757600d820180546003919060ff60a01b1916600160a01b83610b9f565b6005600d830154600160a01b900460ff166009811115610c4357fe5b1415610c6557600d820180546009919060ff60a01b1916600160a01b83610b9f565b60405162461bcd60e51b81526004016102de90615575565b5050565b6000818060005411610ca55760405162461bcd60e51b81526004016102de906155f5565b6000838152600660205260408120600d0154600160a01b900460ff1690816009811115610cce57fe5b1415610cf0576f57616974696e6750726f76696465727360801b925050610afe565b6002816009811115610cfe57fe5b1415610d1e576d57616974696e6752657665616c7360901b925050610afe565b6003816009811115610d2c57fe5b1415610d535774436c61696d65724d6973736564446561646c696e6560581b925050610afe565b6001816009811115610d6157fe5b1415610d89577550726f76696465724d6973736564446561646c696e6560501b925050610afe565b6004816009811115610d9757fe5b1415610db5576b57616974696e67436c61696d60a01b925050610afe565b6005816009811115610dc357fe5b1415610de857722bb0b4ba34b733a1b7b73334b936b0ba34b7b760691b925050610afe565b6006816009811115610df657fe5b1415610e18576f57616974696e674368616c6c656e676560801b925050610afe565b6009816009811115610e2657fe5b1415610e47576e10dbdb9cd95b9cdd5cd4995cdd5b1d608a1b925050610afe565b60405162461bcd60e51b81526004016102de90615585565b6060806060806060868060005411610e895760405162461bcd60e51b81526004016102de906155f5565b6000888152600660209081526040918290208251600480825260a0820190945290926060928201608080388339019050509050816003015481600081518110610ece57fe5b602002602001018181525050610ee38a61391a565b82600601540181600181518110610ef657fe5b6020908102919091010152600482015481516001600160401b039091169082906002908110610f2157fe5b6020026020010181815250508160040160089054906101000a90046001600160401b03166001600160401b031681600381518110610f5b57fe5b60209081029190910101526040805160028082526060828101909352816020016020820280388339505050600d84015481519192506001600160a01b0316908290600090610fa557fe5b6001600160a01b039283166020918202929092010152600c840154825191169082906001908110610fd257fe5b6001600160a01b039092166020928302919091019091015260408051600480825260a0820190925260609181602001602082028038833901905050905083600801548160008151811061102157fe5b60200260200101818152505083600901548160018151811061103f57fe5b60200260200101818152505083600a01548160028151811061105d57fe5b6020026020010181815250506110728c610c81565b8160038151811061107f57fe5b60209081029190910101526000600d850154600160a01b900460ff1660098111156110a657fe5b14156112d857604080516001808252818301909252606091816020015b6110cb613dab565b8152602001906001900390816110c3579050509050846011018560020154815481106110f357fe5b60009182526020918290206040805160e081018252600490930290910180546001600160401b038082168552600160401b9091041683850152600180820180548451601f6002600019958416156101000295909501909216939093049081018790048702830187018552808352949592949386019391929091908301828280156111be5780601f10611193576101008083540402835291602001916111be565b820191906000526020600020905b8154815290600101906020018083116111a157829003601f168201915b5050509183525050600282015460208201526003909101546001600160a01b038116604083015260ff600160a01b8204811615156060840152600160a81b9091041615156080909101528151829060009061121557fe5b602002602001018190525083838387600b0184818054600181600116156101000203166002900480601f0160208091040260200160405190810160405280929190818152602001828054600181600116156101000203166002900480156112bd5780601f10611292576101008083540402835291602001916112bd565b820191906000526020600020905b8154815290600101906020018083116112a057829003601f168201915b505050505091509a509a509a509a509a505050505050611607565b6002600d850154600160a01b900460ff1660098111156112f457fe5b141561134157604080516001808252818301909252606091816020015b611319613dab565b815260200190600190039081611311579050509050846011018560010154815481106110f357fe5b6001600d850154600160a01b900460ff16600981111561135d57fe5b14156114035760408051600080825260208201909252606091611396565b611383613dab565b81526020019060019003908161137b5790505b50600b86018054604080516020601f60026000196101006001881615020190951694909404938401819004810282018101909252828152939450879387938793909287929184918301828280156112bd5780601f10611292576101008083540402835291602001916112bd565b600b84018054604080516020601f60026000196101006001881615020190951694909404938401819004810282018101909252828152869386938693919260118b01929091849183018282801561149b5780601f106114705761010080835404028352916020019161149b565b820191906000526020600020905b81548152906001019060200180831161147e57829003601f168201915b5050505050915080805480602002602001604051908101604052809291908181526020016000905b828210156115f25760008481526020908190206040805160e0810182526004860290920180546001600160401b038082168552600160401b9091041683850152600180820180548451600261010094831615949094026000190190911692909204601f81018790048702830187018552808352949592949386019391929091908301828280156115945780601f1061156957610100808354040283529160200191611594565b820191906000526020600020905b81548152906001019060200180831161157757829003601f168201915b505050918352505060028201546020808301919091526003909201546001600160a01b038116604083015260ff600160a01b8204811615156060840152600160a81b90910416151560809091015290825260019290920191016114c3565b50505050905099509950995099509950505050505b509295509295909350565b60008181526001602052604090205460ff165b919050565b6000805481526006602052604081206001600160a01b0384811690861614156116655760405162461bcd60e51b81526004016102de90615515565b825160408051828152602080840282010190915260009190818015611694578160200160208202803883390190505b5080516116ab916010860191602090910190613de8565b5060005b81811015611a2f576116bf613dab565b8682815181106116cb57fe5b602002602001015190508060c0015161187557600381602001516001600160401b0316101561170c5760405162461bcd60e51b81526004016102de90615625565b600a81602001516001600160401b0316111561173a5760405162461bcd60e51b81526004016102de90615675565b8060a001516118525780602001516001600160401b031660020a6001600160401b031681604001515111156117815760405162461bcd60e51b81526004016102de90615525565b6040810151602082015181516001600160401b0391821660020a909116111561181857816040015182604001515183602001516001600160401b031660020a6001600160401b0316036040519080825280601f01601f1916602001820160405280156117f4576020820181803883390190505b506040516020016118069291906152c5565b60405160208183030381529060405290505b6060611823826134ff565b905061182e816135dd565b87601001858154811061183d57fe5b90600052602060002001819055505050611870565b600f8501805460018181018355600092835260209092200183905593505b6118ec565b845460ff60a01b1916600160a01b178555600e85018054600181018255600091825260209091200182905560a08101516118ce5780606001518560100183815481106118bd57fe5b6000918252602090912001556118ec565b600f8501805460018181018355600092835260209092200183905593505b6040805160e08101825282516001600160401b039081168252602080850151821681840190815285850151948401948552606080870151908501526080808701516001600160a01b03169085015260a08087015115159085015260c08087015115159085015260118a01805460018181018084556000938452928590208751600490930201805494518716600160401b0267ffffffffffffffff60401b199390971667ffffffffffffffff1990951694909417919091169490941782559451805191936119bf9390850192910190613d2d565b506060820151600282015560808201516003909101805460a084015160c0909401511515600160a81b0260ff60a81b19941515600160a01b0260ff60a01b196001600160a01b039095166001600160a01b03199093169290921793909316179290921617905550506001016116af565b506003896001600160401b03161015611a5a5760405162461bcd60e51b81526004016102de906154b5565b8254336001600160a01b0319918216178455600d8401805482166001600160a01b0389811691909117909155600c85018054909216908916179055600383018c9055600883018b9055600983018b905560048301805467ffffffffffffffff19166001600160401b038c81169190911767ffffffffffffffff60401b1916600160401b918c1691909102179055600583018890554260068401558115611b1c57600d830180546000919060ff60a01b1916600160a01b835b0217905550611b5f565b8254600160a01b900460ff1615611b4957600d830180546002919060ff60a01b1916600160a01b83611b12565b600d8301805460ff60a01b1916600160a21b1790555b7f636fd79aca92320cae2060e85a57eff6548c5fb3b972fb98bfd6432eef78c0e9600054604051611b90919061541c565b60405180910390a150506000805481526001602081905260408220805460ff19168217905581549081019091559150505b98975050505050505050565b60008060006060848060005411611bf65760405162461bcd60e51b81526004016102de906155f5565b611bfe613c85565b60008781526006602081815260409283902083516102a08101855281546001600160a01b0381168252600160a01b900460ff161515818401526001808301548287015260028084015460608401526003840154608084015260048401546001600160401b0380821660a0860152600160401b9091041660c0840152600584015460e08401529483015461010080840191909152600784015461012084015260088401546101408401526009840154610160840152600a840154610180840152600b840180548851938116159092026000190190911695909504601f8101859004850282018501909652858152909491936101a086019391929091830182828015611d495780601f10611d1e57610100808354040283529160200191611d49565b820191906000526020600020905b815481529060010190602001808311611d2c57829003601f168201915b5050509183525050600c8201546001600160a01b039081166020830152600d8301549081166040830152606090910190600160a01b900460ff166009811115611d8e57fe5b6009811115611d9957fe5b8152602001600e8201805480602002602001604051908101604052809291908181526020018280548015611dec57602002820191906000526020600020905b815481526020019060010190808311611dd8575b50505050508152602001600f8201805480602002602001604051908101604052809291908181526020018280548015611e4457602002820191906000526020600020905b815481526020019060010190808311611e30575b5050505050815260200160108201805480602002602001604051908101604052809291908181526020018280548015611e9c57602002820191906000526020600020905b815481526020019060010190808311611e88575b5050505050815260200160118201805480602002602001604051908101604052809291908181526020016000905b82821015611ff95760008481526020908190206040805160e0810182526004860290920180546001600160401b038082168552600160401b9091041683850152600180820180548451600261010094831615949094026000190190911692909204601f8101879004870283018701855280835294959294938601939192909190830182828015611f9b5780601f10611f7057610100808354040283529160200191611f9b565b820191906000526020600020905b815481529060010190602001808311611f7e57829003601f168201915b505050918352505060028201546020808301919091526003909201546001600160a01b038116604083015260ff600160a01b8204811615156060840152600160a81b9091041615156080909101529082526001929092019101611eca565b50505091525090915060099050816102000151600981111561201757fe5b1415612034576101a0015160019550600094508493509150612216565b6000816102000151600981111561204757fe5b148061206357506004816102000151600981111561206157fe5b145b8061207e57506005816102000151600981111561207c57fe5b145b8061209957506006816102000151600981111561209757fe5b145b156120bf5750604080516020810190915260008082529550600194508593509150612216565b600181610200015160098111156120d257fe5b1415612185576000878152600660205260408120600f810154600290910154101561211f5781610280015182606001518151811061210c57fe5b6020026020010151608001519050612162565b6000888152600660205260409020600e81015460019091015410156121625781610280015182604001518151811061215357fe5b60200260200101516080015190505b600080826040518060200160405280600081525096509650965096505050612216565b6003816102000151600981111561219857fe5b14806121b45750600781610200015160098111156121b257fe5b145b156121dd576101c001516040805160208101909152600080825296508695509093509150612216565b600881610200015160098111156121f057fe5b1415610e47576101e0015160408051602081019091526000808252965086955090935091505b509193509193565b8080600054116122405760405162461bcd60e51b81526004016102de906155f5565b6000828152600660205260409020600d01546001600160a01b031633811461227a5760405162461bcd60e51b81526004016102de90615595565b6000838152600260209081526040808320805460010190556006909152902083906005600d820154600160a01b900460ff1660098111156122b757fe5b146122d45760405162461bcd60e51b81526004016102de906154e5565b60058054600d830154600c84015492840154600380546009870154600a8801549288015460405163020b738760e41b81526001600160a01b03978816986320b73870986123319881169791811696919516939290916004016152dd565b602060405180830381600087803b15801561234b57600080fd5b505af115801561235f573d6000803e3d6000fd5b505050506040513d601f19601f820116820180604052506123839190810190614261565b6007820155600d8101805460ff60a01b1916600360a11b1790556040517fa895da4b794aeba8d8082db237265459db7b7ffdb5aa7c2332a7c5eafbfae735906123cd90879061541c565b60405180910390a15050505050565b8080600054116123fe5760405162461bcd60e51b81526004016102de906155f5565b6000828152600660205260409020600d01546001600160a01b03163381146124385760405162461bcd60e51b81526004016102de90615595565b6000838152600260209081526040808320805460010190556006909152902083906005600d820154600160a01b900460ff16600981111561247557fe5b146124925760405162461bcd60e51b81526004016102de906154e5565b600d8101805460ff60a01b1916600960a01b1790556040517fa832892b4543448b594422a93bf38c889d54ae5938a065c6ec5f4636161f522a906123cd90879061541c565b6060808380600054116124fc5760405162461bcd60e51b81526004016102de906155f5565b60608060066000888152600660205260409020600d0154600160a01b900460ff16600981111561252857fe5b14156125ce5760408051600180825281830190925290602080830190803883395050604080516001808252818301909252929450905060208083019080388339505060055484519293506001600160a01b03169184915060009061258857fe5b6001600160a01b039092166020928302919091018201526000888152600690915260408120600701548251909183916125bd57fe5b6020026020010181815250506125e8565b505060408051600080825260208201908152818301909252905b90969095509350505050565b8180600054116126165760405162461bcd60e51b81526004016102de906155f5565b60008381526006602052604081208491600d820154600160a01b900460ff16600981111561264057fe5b1461265d5760405162461bcd60e51b81526004016102de906155a5565b600f8101546002820154106126845760405162461bcd60e51b81526004016102de906155b5565b600081600f0182600201548154811061269957fe5b90600052602060002001549050816011018054905081106126cc5760405162461bcd60e51b81526004016102de90615545565b6126d4613dab565b8260110182815481106126e357fe5b60009182526020918290206040805160e081018252600490930290910180546001600160401b038082168552600160401b9091041683850152600180820180548451601f6002600019958416156101000295909501909216939093049081018790048702830187018552808352949592949386019391929091908301828280156127ae5780601f10612783576101008083540402835291602001916127ae565b820191906000526020600020905b81548152906001019060200180831161279157829003601f168201915b5050509183525050600282015460208201526003909101546001600160a01b038116604083015260ff600160a01b8204811615156060840152600160a81b9091041615156080909101526010840180549192506000918490811061280e57fe5b9060005260206000200154146128365760405162461bcd60e51b81526004016102de90615635565b8060a001516128575760405162461bcd60e51b81526004016102de90615665565b60808101516001600160a01b031633146128835760405162461bcd60e51b81526004016102de906155e5565b60008781526006602052604081206002810154600f8201805492939290919081106128aa57fe5b9060005260206000200154905060008260110182815481106128c857fe5b906000526020600020906004020190508060030160159054906101000a900460ff166129065760405162461bcd60e51b81526004016102de906154d5565b806002015483601001838154811061291a57fe5b60009182526020909120015560028301805460010190819055426006850155600f8401541415612985578254600160a01b900460ff161561296f57600d8301805460ff60a01b1916600160a11b179055612985565b600d8301805460ff60a01b1916600160a21b1790555b7f22c714978193eb7c73614ce811408c52836306538892c093d7ca352cc51f87398a8460110184815481106129b657fe5b90600052602060002090600402016040516129d29291906156c0565b60405180910390a150505050505050505050565b808060005411612a085760405162461bcd60e51b81526004016102de906155f5565b6000828152600660205260409020546001600160a01b0316338114612a3f5760405162461bcd60e51b81526004016102de90615595565b60008381526006602052604090206001600d820154600160a01b900460ff166009811115612a6957fe5b1480612a8e57506003600d820154600160a01b900460ff166009811115612a8c57fe5b145b80612ab257506009600d820154600160a01b900460ff166009811115612ab057fe5b145b80612ad657506007600d820154600160a01b900460ff166009811115612ad457fe5b145b80612afa57506008600d820154600160a01b900460ff166009811115612af857fe5b145b612b165760405162461bcd60e51b81526004016102de90615565565b612b24600e82016000613e22565b612b32600f82016000613e22565b612b40601082016000613e22565b612b4e601182016000613e43565b612b5784613c24565b50505050565b808060005411612b7f5760405162461bcd60e51b81526004016102de906155f5565b6000828152600260209081526040808320805460010190556006918290529091208391600d820154600160a01b900460ff166009811115612bbc57fe5b14612bd95760405162461bcd60e51b81526004016102de90615555565b600781015460055460405163b6b5c31960e01b81526001600160a01b039091169063b6b5c31990612c0e90849060040161541c565b60206040518083038186803b158015612c2657600080fd5b505afa158015612c3a573d6000803e3d6000fd5b505050506040513d601f19601f82011682018060405250612c5e919081019061421d565b15612c8757600d820180546007919060ff60a01b1916600160a01b835b02179055505050612d43565b600554604051633664f8bf60e11b81526001600160a01b0390911690636cc9f17e90612cb790849060040161541c565b60206040518083038186803b158015612ccf57600080fd5b505afa158015612ce3573d6000803e3d6000fd5b505050506040513d601f19601f82011682018060405250612d07919081019061421d565b15612d2857600d820180546008919060ff60a01b1916600160a01b83612c7b565b60405162461bcd60e51b81526004016102de90615685565b50505b505050565b808060005411612d6a5760405162461bcd60e51b81526004016102de906155f5565b60008281526006602052604081206001810154600e820180549293929091908110612d9157fe5b60009182526020909120015490506002600d830154600160a01b900460ff166009811115612dbb57fe5b14612dd85760405162461bcd60e51b81526004016102de90615695565b60118201548110612dfb5760405162461bcd60e51b81526004016102de906154a5565b612e03613dab565b826011018281548110612e1257fe5b60009182526020918290206040805160e081018252600490930290910180546001600160401b038082168552600160401b9091041683850152600180820180548451601f600260001995841615610100029590950190921693909304908101879004870283018701855280835294959294938601939192909190830182828015612edd5780601f10612eb257610100808354040283529160200191612edd565b820191906000526020600020905b815481529060010190602001808311612ec057829003601f168201915b5050509183525050600282015460208201526003909101546001600160a01b038116604083015260ff600160a01b8204811615156060840152600160a81b90910416151560809091015260c0810151909150612f4b5760405162461bcd60e51b81526004016102de90615605565b6004805460608301516020840151604051632b6baa3760e21b81526001600160a01b039093169363adaea8dc93612f849392910161542a565b60206040518083038186803b158015612f9c57600080fd5b505afa158015612fb0573d6000803e3d6000fd5b505050506040513d601f19601f82011682018060405250612fd4919081019061421d565b612ff05760405162461bcd60e51b81526004016102de906154f5565b6001808401805490910190819055426006850155600e8401541415612d40575050600d01805460ff60a01b1916600160a21b1790555050565b81806000541161304b5760405162461bcd60e51b81526004016102de906155f5565b60008381526006602052604081208491600d820154600160a01b900460ff16600981111561307557fe5b146130925760405162461bcd60e51b81526004016102de906155a5565b600f8101546002820154106130b95760405162461bcd60e51b81526004016102de906155b5565b600081600f018260020154815481106130ce57fe5b90600052602060002001549050816011018054905081106131015760405162461bcd60e51b81526004016102de90615545565b613109613dab565b82601101828154811061311857fe5b60009182526020918290206040805160e081018252600490930290910180546001600160401b038082168552600160401b9091041683850152600180820180548451601f6002600019958416156101000295909501909216939093049081018790048702830187018552808352949592949386019391929091908301828280156131e35780601f106131b8576101008083540402835291602001916131e3565b820191906000526020600020905b8154815290600101906020018083116131c657829003601f168201915b5050509183525050600282015460208201526003909101546001600160a01b038116604083015260ff600160a01b8204811615156060840152600160a81b9091041615156080909101526010840180549192506000918490811061324357fe5b90600052602060002001541461326b5760405162461bcd60e51b81526004016102de90615635565b8060a0015161328c5760405162461bcd60e51b81526004016102de90615665565b60808101516001600160a01b031633146132b85760405162461bcd60e51b81526004016102de906155e5565b60008781526006602052604081206002810154600f8201805492939290919081106132df57fe5b9060005260206000200154905060008260110182815481106132fd57fe5b906000526020600020906004020190508060030160159054906101000a900460ff161561333c5760405162461bcd60e51b81526004016102de90615455565b80548951600160401b9091046001600160401b0390811660020a1610156133755760405162461bcd60e51b81526004016102de90615525565b805489518a916001600160401b03600160401b909104811660020a161115613406578951825460408051600160401b9092046001600160401b0390811660020a16929092038082526020601f8201601f19168301019092528b9180156133e2576020820181803883390190505b506040516020016133f49291906152c5565b60405160208183030381529060405290505b6060613411826134ff565b9050600061341e826135dd565b90508086601001868154811061343057fe5b60009182526020909120015560028601805460010190819055426006880155600f870154141561349b578554600160a01b900460ff161561348557600d8601805460ff60a01b1916600160a11b17905561349b565b600d8601805460ff60a01b1916600160a21b1790555b7f22c714978193eb7c73614ce811408c52836306538892c093d7ca352cc51f87398d8760110187815481106134cc57fe5b90600052602060002090600402016040516134e89291906156c0565b60405180910390a150505050505050505050505050565b60606000600883518161350e57fe5b04905060608160405190808252806020026020018201604052801561353d578160200160208202803883390190505b50905060005b828110156135d5576000805b600881101561358d576000878285600802018151811061356b57fe5b01602001516001600160f81b031916600883021c92909217915060010161354f565b508060405160200161359f91906152b0565b604051602081830303815290604052805190602001208383815181106135c157fe5b602090810291909101015250600101613543565b509392505050565b60006135e98251613c47565b6136055760405162461bcd60e51b81526004016102de906155c5565b81516001141561362b578160008151811061361c57fe5b60200260200101519050611625565b606060018351901c60405190808252806020026020018201604052801561365c578160200160208202803883390190505b50905060005b83518110156136e05783818151811061367757fe5b602002602001015184826001018151811061368e57fe5b60200260200101516040516020016136a792919061528a565b6040516020818303038152906040528051906020012082600183901c815181106136cd57fe5b6020908102919091010152600201613662565b506136ea816135dd565b915050611625565b60006003846001600160401b0316101561371e5760405162461bcd60e51b81526004016102de90615475565b6040846001600160401b031611156137485760405162461bcd60e51b81526004016102de906155d5565b6001600160401b0380851660020a9060001982018716161561377c5760405162461bcd60e51b81526004016102de90615535565b846040036001600160401b03168351146137a85760405162461bcd60e51b81526004016102de90615615565b60005b8351811015613852576001600160401b03808316821b88161661380b57848482815181106137d557fe5b60200260200101516040516020016137ee92919061528a565b60405160208183030381529060405280519060200120945061384a565b83818151811061381757fe5b60200260200101518560405160200161383192919061528a565b6040516020818303038152906040528051906020012094505b6001016137ab565b509295945050505050565b600060038260ff1610156138835760405162461bcd60e51b81526004016102de90615655565b60408260ff1611156138a75760405162461bcd60e51b81526004016102de906155d5565b60405160009081906138bd9082906020016152b0565b60408051601f198184030181529190528051602090910120905060035b8460ff168110156135d55781826040516020016138f892919061528a565b60408051601f19818403018152919052805160209091012091506001016138da565b600060016101f46028836000868152600660205260409020600d0154600160a01b900460ff16600981111561394b57fe5b141561396d575050506000828152600660205260409020600501549050611625565b60026000868152600660205260409020600d0154600160a01b900460ff16600981111561399657fe5b14156139bc57505050600082815260066020526040902060050154610960019050611625565b60046000868152600660205260409020600d0154600160a01b900460ff1660098111156139e557fe5b1415613a1c576000858152600660205260409020600581015460039091015464e8d4a510009084025b048201019350505050611625565b60056000868152600660205260409020600d0154600160a01b900460ff166009811115613a4557fe5b1415613a72576000858152600660205260409020600581015460039091015464e8d4a51000908402613a0e565b60066000868152600660205260409020600d0154600160a01b900460ff166009811115613a9b57fe5b1415613b4e576000858152600660205260409081902060058082015490546003909201549251631b8798d560e11b815290926001600160a01b039092169163370f31aa91613af391859187918a918a906004016156e0565b60206040518083038186803b158015613b0b57600080fd5b505afa158015613b1f573d6000803e3d6000fd5b505050506040513d601f19601f82011682018060405250613b439190810190614261565b019350505050611625565b60086000868152600660205260409020600d0154600160a01b900460ff166009811115613b7757fe5b1480613ba9575060076000868152600660205260409020600d0154600160a01b900460ff166009811115613ba757fe5b145b80613bda575060036000868152600660205260409020600d0154600160a01b900460ff166009811115613bd857fe5b145b80613c0b575060096000868152600660205260409020600d0154600160a01b900460ff166009811115613c0957fe5b145b15613c1c5760009350505050611625565b505050919050565b6000908152600160209081526040808320805460ff191690556002909152812055565b60008180613c59576000915050611625565b5b60018116613c6a5760011c613c5a565b60011c80613c7c576001915050611625565b50600092915050565b604080516102a08101825260008082526020820181905291810182905260608082018390526080820183905260a0820183905260c0820183905260e08201839052610100820183905261012082018390526101408201839052610160820183905261018082018390526101a08201526101c081018290526101e08101829052906102008201908152602001606081526020016060815260200160608152602001606081525090565b828054600181600116156101000203166002900490600052602060002090601f016020900481019282601f10613d6e57805160ff1916838001178555613d9b565b82800160010185558215613d9b579182015b82811115613d9b578251825591602001919060010190613d80565b50613da7929150613e64565b5090565b6040805160e08101825260008082526020820181905260609282018390529181018290526080810182905260a0810182905260c081019190915290565b828054828255906000526020600020908101928215613d9b5791602002820182811115613d9b578251825591602001919060010190613d80565b5080546000825590600052602060002090810190613e409190613e64565b50565b5080546000825560040290600052602060002090810190613e409190613e81565b613e7e91905b80821115613da75760008155600101613e6a565b90565b613e7e91905b80821115613da75780546fffffffffffffffffffffffffffffffff191681556000613eb56001830182613ed7565b50600060028201556003810180546001600160b01b0319169055600401613e87565b50805460018160011615610100020316600290046000825580601f10613efd5750613e40565b601f016020900490600052602060002090810190613e409190613e64565b8035613f26816158a0565b92915050565b600082601f830112613f3d57600080fd5b8135613f50613f4b82615748565b615722565b81815260209384019390925082018360005b83811015613f8e5781358601613f788882613f98565b8452506020928301929190910190600101613f62565b5050505092915050565b600082601f830112613fa957600080fd5b8135613fb7613f4b82615748565b91508181835260208401935060208101905083856020840282011115613fdc57600080fd5b60005b83811015613f8e5781613ff288826140eb565b8452506020928301929190910190600101613fdf565b600082601f83011261401957600080fd5b8135614027613f4b82615748565b9150818183526020840193506020810190508385602084028201111561404c57600080fd5b60005b83811015613f8e578161406288826140eb565b845250602092830192919091019060010161404f565b600082601f83011261408957600080fd5b8135614097613f4b82615748565b81815260209384019390925082018360005b83811015613f8e57813586016140bf8882614145565b84525060209283019291909101906001016140a9565b8035613f26816158b4565b8051613f26816158b4565b8035613f26816158bd565b600082601f83011261410757600080fd5b8135614115613f4b82615768565b9150808252602083016020830185838301111561413157600080fd5b61413c8382846157e9565b50505092915050565b600060e0828403121561415757600080fd5b61416160e0615722565b9050600061416f8484614212565b825250602061418084848301614212565b60208301525060408201356001600160401b0381111561419f57600080fd5b6141ab848285016140f6565b60408301525060606141bf848285016140eb565b60608301525060806141d384828501613f1b565b60808301525060a06141e7848285016140d5565b60a08301525060c06141fb848285016140d5565b60c08301525092915050565b8051613f26816158bd565b8035613f26816158c6565b60006020828403121561422f57600080fd5b600061423b84846140e0565b949350505050565b60006020828403121561425557600080fd5b600061423b84846140eb565b60006020828403121561427357600080fd5b600061423b8484614207565b6000806040838503121561429257600080fd5b600061429e85856140eb565b92505060206142af85828601613f1b565b9150509250929050565b600080604083850312156142cc57600080fd5b60006142d885856140eb565b92505060206142af858286016140eb565b600080600080600060a0868803121561430157600080fd5b600061430d88886140eb565b955050602061431e888289016140eb565b94505060408601356001600160401b0381111561433a57600080fd5b61434688828901613f2c565b93505060608601356001600160401b0381111561436257600080fd5b61436e888289016140f6565b92505060808601356001600160401b0381111561438a57600080fd5b61439688828901614008565b9150509295509295909350565b600080600080600080600080610100898b0312156143c057600080fd5b60006143cc8b8b6140eb565b98505060206143dd8b828c016140eb565b97505060406143ee8b828c01614212565b96505060606143ff8b828c01614212565b95505060806144108b828c016140eb565b94505060a06144218b828c01613f1b565b93505060c06144328b828c01613f1b565b92505060e08901356001600160401b0381111561444e57600080fd5b61445a8b828c01614078565b9150509295985092959890939650565b6000806040838503121561447d57600080fd5b600061448985856140eb565b92505060208301356001600160401b038111156144a557600080fd5b6142af858286016140f6565b60006144bd83836144e4565b505060200190565b60006144bd838361465f565b60006144dd8383615134565b9392505050565b6144ed816157cc565b82525050565b60006144fe826157a1565b61450881856157a5565b93506145138361578f565b8060005b8381101561454157815161452b88826144b1565b97506145368361578f565b925050600101614517565b509495945050505050565b6000614557826157a1565b61456181856157a5565b935061456c8361578f565b8060005b8381101561454157815161458488826144c5565b975061458f8361578f565b925050600101614570565b60006145a5826157a1565b6145af81856157a5565b9350836020820285016145c18561578f565b8060005b858110156145fb57848403895281516145de85826144d1565b94506145e98361578f565b60209a909a01999250506001016145c5565b5091979650505050505050565b6000614613826157a1565b61461d81856157a5565b93506146288361578f565b8060005b8381101561454157815161464088826144c5565b975061464b8361578f565b92505060010161462c565b6144ed816157d7565b6144ed81613e7e565b6144ed61467482613e7e565b613e7e565b6144ed614674826157dc565b6000614690826157a1565b61469a81856157a5565b93506146aa8185602086016157f5565b6146b381615884565b9093019392505050565b60006146c8826157a1565b6146d28185611625565b93506146e28185602086016157f5565b9290920192915050565b600081546001811660008114614709576001811461472f5761476e565b607f600283041661471a81876157a5565b60ff198416815295505060208501925061476e565b6002820461473d81876157a5565b955061474885615795565b60005b828110156147675781548882015260019091019060200161474b565b8701945050505b505092915050565b60006147836029836157a5565b7f4f7574707574206973206e6f7420636f6e7461696e656420696e2074686520668152680d2dcc2d840d0c2e6d60bb1b602082015260400192915050565b60006147ce6027836157a5565b7f496e76616c696420647269766520746f20636c61696d20666f72206469726563815266742076616c756560c81b602082015260400192915050565b6000614817604c836157a5565b7f4472697665207369626c696e6773206d75737420626520636f6d70617469626c81527f6520776974682070726576696f757320696e697469616c206861736820666f7260208201526b20656d70747920647269766560a01b604082015260600192915050565b600061488b6017836157a5565b7f4d757374206265206174206c65617374206120776f7264000000000000000000815260200192915050565b60006148c4600e836157a5565b6d496e64657820696e61637469766560901b815260200192915050565b60006148ee6039836157a5565b7f436c61696d6564206472697665206e756d6265722073686f756c64206d61746381527f6820636c61696d6564207369626c696e6773206e756d62657200000000000000602082015260400192915050565b600061494d6012836157a5565b71092dcecc2d8d2c840c8e4d2ecca92dcc8caf60731b815260200192915050565b600061497b6028836157a5565b7f6f75747075742064726976652068617320746f206265206174206c65617374208152671bdb99481ddbdc9960c21b602082015260400192915050565b60006149c5601c836157a5565b7f53746174652073686f756c642062652057616974696e67436c61696d00000000815260200192915050565b60006149fe6021836157a5565b7f496e76616c696420647269766520746f20636c61696d20666f72206c6f6767658152603960f91b602082015260400192915050565b6000614a416023836157a5565b7f53746174652073686f756c642062652057616974696e67436f6e6669726d617481526234b7b760e91b602082015260400192915050565b6000614a866023836157a5565b7f48617368206973206e6f7420617661696c61626c65206f6e206c6f67676572208152621e595d60ea1b602082015260400192915050565b6000614acb602c836157a5565b7f446561646c696e65206973206e6f74206f76657220666f72207468697320737081526b65636966696320737461746560a01b602082015260400192915050565b6000614b19601e836157a5565b7f436c61696d65722063616e6e6f742062652061206368616c6c656e6765720000815260200192915050565b6000614b526030836157a5565b7f496e707574206279746573206c656e677468206578636565647320746865206381526f6c61696d6564206c6f67322073697a6560801b602082015260400192915050565b6000614ba46017836157a5565b7f506f736974696f6e206973206e6f7420616c69676e6564000000000000000000815260200192915050565b6000614bdd6013836157a5565b72092dcecc2d8d2c840c8e4d2ecca40d2dcc8caf606b1b815260200192915050565b6000614c0c602d836157a5565b7f5374617465206973206e6f742057616974696e674368616c6c656e67652c206381526c616e6e6f742077696e4279564760981b602082015260400192915050565b6000614c5b6029836157a5565b7f43616e6e6f7420646573747275637420696e7374616e63652061742063757272815268656e7420737461746560b81b602082015260400192915050565b6000614ca6601a836157a5565b7f43616e6e6f742061626f72742063757272656e74207374617465000000000000815260200192915050565b6000614cdf6012836157a5565b71556e7265636f676e697a656420737461746560701b815260200192915050565b6000614d0d6018836157a5565b7f43616e6e6f742062652063616c6c656420627920757365720000000000000000815260200192915050565b6000614d466021836157a5565b7f546865207374617465206973206e6f742057616974696e6750726f76696465728152607360f81b602082015260400192915050565b6000614d89601b836157a5565b7f4e6f20617661696c61626c652070656e64696e67206472697665730000000000815260200192915050565b6000614dc26030836157a5565b7f54686520696e707574206172726179206d75737420636f6e7461696e20706f7781526f6572206f66203220656c656d656e747360801b602082015260400192915050565b6000614e146028836157a5565b7f43616e6e6f7420626520626967676572207468616e20746865206d616368696e815267329034ba39b2b63360c11b602082015260400192915050565b6000614e5e601a836157a5565b7f5468652073656e646572206973206e6f742070726f7669646572000000000000815260200192915050565b6000614e976016836157a5565b75125b99195e081b9bdd081a5b9cdd185b9d1a585d195960521b815260200192915050565b6000614ec9601a836157a5565b7f6e656564734c6f676765722073686f756c642062652074727565000000000000815260200192915050565b6000614f02601b836157a5565b7f50726f6f66206c656e67746820646f6573206e6f74206d617463680000000000815260200192915050565b6000614f3b6027836157a5565b7f64697265637456616c75652068617320746f206265206174206c65617374206f8152661b99481ddbdc9960ca1b602082015260400192915050565b6000614f846022836157a5565b7f54686520647269766520686173682073686f756c646e27742062652066696c6c815261195960f21b602082015260400192915050565b6000614fc8602c836157a5565b7f4f7574707574206c656e67746820646f65736e2774206d61746368206f75747081526b7574206c6f67322073697a6560a01b602082015260400192915050565b6000615016601b836157a5565b7f48617320746f206265206174206c65617374206f6e6520776f72640000000000815260200192915050565b600061504f601b836157a5565b7f7761697450726f76696465722073686f756c6420626520747275650000000000815260200192915050565b60006150886025836157a5565b7f64697265637456616c75652063616e6e6f742062652062696767657220746861815264371018b5a160d91b602082015260400192915050565b60006150cf6018836157a5565b7f5374617465206f66205647206973206e6f742066696e616c0000000000000000815260200192915050565b6000615108601f836157a5565b7f546865207374617465206973206e6f742057616974696e6752657665616c7300815260200192915050565b805160009060e08401906151488582615281565b50602083015161515b6020860182615281565b50604083015184820360408601526151738282614685565b9150506060830151615188606086018261465f565b50608083015161519b60808601826144e4565b5060a08301516151ae60a0860182614656565b5060c08301516135d560c0860182614656565b805460009060e08401906151d481615842565b6151de8682615281565b506151e881615876565b6151f56020870182615281565b5060018401858303604087015261520c83826146ec565b9250506002840154905061521f81615834565b61522c606087018261465f565b5050600383015461523c81615821565b61524960808701826144e4565b5061525381615855565b61526060a0870182614656565b5061526a81615868565b61527760c0870182614656565b5090949350505050565b6144ed816157c0565b60006152968285614668565b6020820191506152a68284614668565b5060200192915050565b60006152bc8284614679565b50600801919050565b60006152d182856146bd565b915061423b82846146bd565b60e081016152eb828a6144e4565b6152f860208301896144e4565b615305604083018861465f565b61531260608301876144e4565b61531f608083018661465f565b61532c60a083018561465f565b611bc160c083018461465f565b6040808252810161534a81856144f3565b9050818103602083015261423b8184614608565b60a0808252810161536f8188614608565b9050818103602083015261538381876144f3565b90508181036040830152615397818661454c565b905081810360608301526153ab8185614685565b905081810360808301526153bf818461459a565b979650505050505050565b60208101613f268284614656565b608081016153e68287614656565b6153f36020830186614656565b61540060408301856144e4565b81810360608301526154128184614685565b9695505050505050565b60208101613f26828461465f565b60408101615438828561465f565b6144dd6020830184615281565b60208082528101613f2681614776565b60208082528101613f26816147c1565b60208082528101613f268161480a565b60208082528101613f268161487e565b60208082528101613f26816148b7565b60208082528101613f26816148e1565b60208082528101613f2681614940565b60208082528101613f268161496e565b60208082528101613f26816149b8565b60208082528101613f26816149f1565b60208082528101613f2681614a34565b60208082528101613f2681614a79565b60208082528101613f2681614abe565b60208082528101613f2681614b0c565b60208082528101613f2681614b45565b60208082528101613f2681614b97565b60208082528101613f2681614bd0565b60208082528101613f2681614bff565b60208082528101613f2681614c4e565b60208082528101613f2681614c99565b60208082528101613f2681614cd2565b60208082528101613f2681614d00565b60208082528101613f2681614d39565b60208082528101613f2681614d7c565b60208082528101613f2681614db5565b60208082528101613f2681614e07565b60208082528101613f2681614e51565b60208082528101613f2681614e8a565b60208082528101613f2681614ebc565b60208082528101613f2681614ef5565b60208082528101613f2681614f2e565b60208082528101613f2681614f77565b60208082528101613f2681614fbb565b60208082528101613f2681615009565b60208082528101613f2681615042565b60208082528101613f268161507b565b60208082528101613f26816150c2565b60208082528101613f26816150fb565b604081016156b3828561465f565b6144dd602083018461465f565b604081016156ce828561465f565b818103602083015261423b81846151c1565b60a081016156ee828861465f565b6156fb602083018761465f565b615708604083018661465f565b615715606083018561465f565b615412608083018461465f565b6040518181016001600160401b038111828210171561574057600080fd5b604052919050565b60006001600160401b0382111561575e57600080fd5b5060209081020190565b60006001600160401b0382111561577e57600080fd5b506020601f91909101601f19160190565b60200190565b60009081526020902090565b5190565b90815260200190565b6001600160a01b031690565b60ff1690565b6001600160401b031690565b6000613f26826157ae565b151590565b6001600160c01b03191690565b82818337506000910152565b60005b838110156158105781810151838201526020016157f8565b83811115612b575750506000910152565b6000613f2661582f83613e7e565b6157ae565b6000613f2661467483613e7e565b6000613f2661585083613e7e565b6157c0565b6000613f266158638361588e565b6157ba565b6000613f2661586383615894565b6000613f266158508361589a565b601f01601f191690565b60a01c90565b60a81c90565b60401c90565b6158a9816157cc565b8114613e4057600080fd5b6158a9816157d7565b6158a981613e7e565b6158a9816157c056fea365627a7a723158204b8fee5950f18a28a3fdc00e120192100f4db53f936b7e114b4fc5ff545124ea6c6578706572696d656e74616cf564736f6c63430005100040",
  "source": "// Copyright (C) 2020 Cartesi Pte. Ltd.\n\n// This program is free software: you can redistribute it and/or modify it under\n// the terms of the GNU General Public License as published by the Free Software\n// Foundation, either version 3 of the License, or (at your option) any later\n// version.\n\n// This program is distributed in the hope that it will be useful, but WITHOUT ANY\n// WARRANTY; without even the implied warranty of MERCHANTABILITY or FITNESS FOR A\n// PARTICULAR PURPOSE. See the GNU General Public License for more details.\n\n// You should have received a copy of the GNU General Public License\n// along with this program.  If not, see <https://www.gnu.org/licenses/>.\n\n// Note: This component currently has dependencies that are licensed under the GNU\n// GPL, version 3, and so you should treat this component as a whole as being under\n// the GPL version 3. But all Cartesi-written code in this component is licensed\n// under the Apache License, version 2, or a compatible permissive license, and can\n// be used independently under the Apache v2 license. After this component is\n// rewritten, the entire component will be released under the Apache v2 license.\n\n/// @title Descartes\n/// @author Stephen Chen\npragma solidity ^0.5.0;\npragma experimental ABIEncoderV2;\n\nimport \"@cartesi/util/contracts/Merkle.sol\";\nimport \"@cartesi/util/contracts/Decorated.sol\";\nimport \"@cartesi/logger/contracts/LoggerInterface.sol\";\nimport \"@cartesi/arbitration/contracts/VGInterface.sol\";\nimport \"./DescartesInterface.sol\";\n\n\ncontract Descartes is Decorated, DescartesInterface {\n    address machine; // machine which will run the challenge\n    LoggerInterface li;\n    VGInterface vg;\n\n    struct DescartesCtx {\n        address owner; // the one who has power to shutdown the instance\n        bool needsRevealPhase; // one or more drives needs to reveal its content\n        uint256 revealDrivesPointer; // the pointer to the current reveal drive\n        uint256 providerDrivesPointer; // the pointer to the current provider drive\n        uint256 finalTime; // max number of machine cycle to run\n        uint64 outputPosition; // memory position of machine output\n        uint64 outputLog2Size; // log2 size of the output drive in the unit of bytes\n        uint256 roundDuration; // time interval to interact with this contract\n        uint256 timeOfLastMove; // last time someone made a move with deadline\n        uint256 vgInstance;\n        bytes32 templateHash; // pristine hash of machine\n        bytes32 initialHash; // initial hash with all drives mounted\n        bytes32 claimedFinalHash; // claimed final hash of the machine\n        bytes claimedOutput; // claimed final machine output\n        address claimer; // responsible for claiming the machine output\n        address challenger; // user can challenge claimer's output\n        State currentState;\n        uint256[] revealDrives; // indices of the reveal drives\n        uint256[] providerDrives; // indices of the provider drives\n        bytes32[] driveHash; // root hash of the drives\n        Drive[] inputDrives;\n    }\n\n    mapping(uint256 => DescartesCtx) internal instance;\n\n    // These are the possible states and transitions of the contract.\n\n    // +---+\n    // |   |\n    // +---+\n    //   |\n    //   | instantiate\n    //   v\n    // +------------------+    abortByDeadline    +------------------------+\n    // | WaitingProviders |---------------------->| ProviderMissedDeadline |\n    // +------------------+                       +------------------------+\n    //   |\n    //   | provideLoggerDrive\n    //   | or\n    //   | provideDirectDrive\n    //   v\n    // +----------------+   abortByDeadline    +------------------------+\n    // | WaitingReveals |--------------------->| ProviderMissedDeadline |\n    // +----------------+                      +------------------------+\n    //   |\n    //   | revealLoggerDrive\n    //   v\n    // +--------------+   abortByDeadline    +-----------------------+\n    // | WaitingClaim |--------------------->| ClaimerMissedDeadline |\n    // +--------------+                      +-----------------------+\n    //   |\n    //   |\n    //   |\n    //   | submitClaim\n    //   v\n    // +---------------------+  confirm    +-----------------+\n    // | WaitingConfirmation |------------>| ConsensusResult |\n    // +---------------------+ or deadline +-----------------+\n    //   |\n    //   |\n    //   | challenge\n    //   v\n    // +------------------+    winByVG     +------------+\n    // | WaitingChallenge |--------------->| ClaimerWon |\n    // +------------------+                +------------+\n    //   |\n    //   |\n    //   |                  winByVG        +---------------+\n    //   +-------------------------------->| ChallengerWon |\n    //                                     +---------------+\n    //\n\n    event DescartesCreated(\n        uint256 _index\n    );\n    event ClaimSubmitted(uint256 _index, bytes32 _claimedFinalHash);\n    event ResultConfirmed(uint256 _index);\n    event ChallengeStarted(uint256 _index);\n    event DescartesFinished(uint256 _index, uint8 _state);\n    event DriveInserted(uint256 _index, Drive _drive);\n\n    constructor(\n        address _liAddress,\n        address _vgAddress,\n        address _machineAddress) public\n    {\n        machine = _machineAddress;\n        vg = VGInterface(_vgAddress);\n        li = LoggerInterface(_liAddress);\n    }\n\n    /// @notice Instantiate a Descartes SDK instance.\n    /// @param _finalTime max cycle of the machine for that computation\n    /// @param _templateHash hash of the machine with all drives empty\n    /// @param _outputPosition position of the output drive\n    /// @param _roundDuration duration of the round (security param)\n    /// @param _inputDrives an array of drive which assemble the machine\n    /// @return uint256, Descartes index\n    function instantiate(\n        uint256 _finalTime,\n        bytes32 _templateHash,\n        uint64 _outputPosition,\n        uint64 _outputLog2Size,\n        uint256 _roundDuration,\n        address _claimer,\n        address _challenger,\n        Drive[] memory _inputDrives) public returns (uint256)\n    {\n        DescartesCtx storage i = instance[currentIndex];\n\n        require(_challenger != _claimer, \"Claimer cannot be a challenger\");\n\n        bool needsProviderPhase = false;\n        uint256 drivesLength = _inputDrives.length;\n        i.driveHash = new bytes32[](drivesLength);\n        for (uint256 j = 0; j < drivesLength; j++) {\n            Drive memory drive = _inputDrives[j];\n\n            if (!drive.needsLogger) {\n                require(drive.driveLog2Size >= 3, \"directValue has to be at least one word\");\n                require(drive.driveLog2Size <= 10, \"directValue cannot be bigger than 1kB\");\n\n                if (!drive.waitsProvider) {\n                    require(\n                        drive.directValue.length <= 2 ** drive.driveLog2Size,\n                        \"Input bytes length exceeds the claimed log2 size\"\n                    );\n\n                    // pad zero to the directValue if it's not exact power of 2\n                    bytes memory paddedDirectValue = drive.directValue;\n                    if (drive.directValue.length < 2 ** drive.driveLog2Size) {\n                        paddedDirectValue = abi.encodePacked(\n                                drive.directValue,\n                                new bytes(2 ** drive.driveLog2Size - drive.directValue.length)\n                        );\n                    }\n\n                    bytes32[] memory data = getWordHashesFromBytes(paddedDirectValue);\n                    i.driveHash[j] = Merkle.calculateRootFromPowerOfTwo(data);\n                } else {\n                    needsProviderPhase = true;\n                    i.providerDrives.push(j);\n                }\n            } else {\n                i.needsRevealPhase = true;\n                i.revealDrives.push(j);\n                if (!drive.waitsProvider) {\n                    i.driveHash[j] = drive.loggerRootHash;\n                } else {\n                    needsProviderPhase = true;\n                    i.providerDrives.push(j);\n                }\n            }\n            i.inputDrives.push(Drive(\n                drive.position,\n                drive.driveLog2Size,\n                drive.directValue,\n                drive.loggerRootHash,\n                drive.provider,\n                drive.waitsProvider,\n                drive.needsLogger\n            ));\n        }\n\n        require(_outputLog2Size >= 3, \"output drive has to be at least one word\");\n\n        i.owner = msg.sender;\n        i.challenger = _challenger;\n        i.claimer = _claimer;\n        i.finalTime = _finalTime;\n        i.templateHash = _templateHash;\n        i.initialHash = _templateHash;\n        i.outputPosition = _outputPosition;\n        i.outputLog2Size = _outputLog2Size;\n        i.roundDuration = _roundDuration;\n        i.timeOfLastMove = now;\n        if (needsProviderPhase) {\n            i.currentState = State.WaitingProviders;\n        } else if (i.needsRevealPhase) {\n            i.currentState = State.WaitingReveals;\n        } else {\n            i.currentState = State.WaitingClaim;\n        }\n\n        emit DescartesCreated(\n            currentIndex\n        );\n        active[currentIndex] = true;\n        return currentIndex++;\n    }\n\n    /// @notice Challenger accepts claim.\n    /// @param _index index of Descartes instance that the challenger is confirming the claim.\n    function confirm(uint256 _index) public\n        onlyInstantiated(_index)\n        onlyBy(instance[_index].challenger)\n        increasesNonce(_index)\n    {\n        DescartesCtx storage i = instance[_index];\n        require(i.currentState == State.WaitingConfirmation, \"State should be WaitingConfirmation\");\n\n        i.currentState = State.ConsensusResult;\n        emit ResultConfirmed(_index);\n    }\n\n    /// @notice Challenger disputes the claim, starting a verification game.\n    /// @param _index index of Descartes instance which challenger is starting the VG.\n    function challenge(uint256 _index) public\n        onlyInstantiated(_index)\n        onlyBy(instance[_index].challenger)\n        increasesNonce(_index)\n    {\n        DescartesCtx storage i = instance[_index];\n        require(i.currentState == State.WaitingConfirmation, \"State should be WaitingConfirmation\");\n\n        i.vgInstance = vg.instantiate(\n            i.challenger,\n            i.claimer,\n            i.roundDuration,\n            machine,\n            i.initialHash,\n            i.claimedFinalHash,\n            i.finalTime);\n        i.currentState = State.WaitingChallenge;\n\n        emit ChallengeStarted(_index);\n    }\n\n    /// @notice Claimer claims the machine final hash and also validate the drives and initial hash of the machine.\n    /// @param _claimedFinalHash is the final hash of the machine\n    /// @param _drivesSiblings is an array of siblings of each drive (see below example)\n    /// @param _output is the bytes32 value of the output position\n    /// @param _outputSiblings is the siblings of the output drive\n    /// @dev Example: consider 3 drives, the first drive's siblings should be a pristine machine.\n    ///      The second drive's siblings should be the machine with drive 1 mounted.\n    ///      The third drive's siblings should be the machine with drive 2 mounted.\n    function submitClaim(\n        uint256 _index,\n        bytes32 _claimedFinalHash,\n        bytes32[][] memory _drivesSiblings,\n        bytes memory _output,\n        bytes32[] memory _outputSiblings) public\n        onlyInstantiated(_index)\n        onlyBy(instance[_index].claimer)\n        increasesNonce(_index)\n    {\n        DescartesCtx storage i = instance[_index];\n        require(i.currentState == State.WaitingClaim, \"State should be WaitingClaim\");\n        require(i.inputDrives.length == _drivesSiblings.length, \"Claimed drive number should match claimed siblings number\");\n        require(_output.length == 2 ** i.outputLog2Size, \"Output length doesn't match output log2 size\");\n\n        bytes32[] memory data = getWordHashesFromBytes(_output);\n        require(\n            Merkle.getRootWithDrive(\n                i.outputPosition,\n                i.outputLog2Size,\n                Merkle.calculateRootFromPowerOfTwo(data),\n                _outputSiblings) == _claimedFinalHash,\n            \"Output is not contained in the final hash\"\n        );\n\n        uint256 drivesLength = i.inputDrives.length;\n        for (uint256 j = 0; j < drivesLength; j++) {\n            require(\n                Merkle.getRootWithDrive(\n                    i.inputDrives[j].position,\n                    i.inputDrives[j].driveLog2Size,\n                    Merkle.getPristineHash(uint8(i.inputDrives[j].driveLog2Size)),\n                    _drivesSiblings[j]) == i.initialHash,\n                \"Drive siblings must be compatible with previous initial hash for empty drive\"\n            );\n            i.initialHash = Merkle.getRootWithDrive(\n                i.inputDrives[j].position,\n                i.inputDrives[j].driveLog2Size,\n                i.driveHash[j],\n                _drivesSiblings[j]\n            );\n        }\n\n        i.claimedFinalHash = _claimedFinalHash;\n        i.currentState = State.WaitingConfirmation;\n        i.claimedOutput = _output;\n\n        emit ClaimSubmitted(_index, _claimedFinalHash);\n    }\n\n    /// @notice Is the given user concern about this instance.\n    function isConcerned(uint256 _index, address _user) public view\n        onlyInstantiated(_index)\n        returns (bool)\n    {\n        DescartesCtx memory i = instance[_index];\n        return (_user == i.claimer || _user == i.challenger);\n    }\n\n    /// @notice Get state of the instance concerning given user.\n    function getState(uint256 _index, address) public view\n        onlyInstantiated(_index)\n        returns (\n            uint256[] memory,\n            address[] memory,\n            bytes32[] memory,\n            bytes memory,\n            Drive[] memory\n        )\n    {\n        DescartesCtx storage i = instance[_index];\n\n        uint256[] memory uintValues = new uint256[](4);\n        uintValues[0] = i.finalTime;\n        uintValues[1] = i.timeOfLastMove + getMaxStateDuration(\n            _index);\n        uintValues[2] = i.outputPosition;\n        uintValues[3] = i.outputLog2Size;\n\n        address[] memory addressValues = new address[](2);\n        addressValues[0] = i.challenger;\n        addressValues[1] = i.claimer;\n\n        bytes32[] memory bytes32Values = new bytes32[](4);\n        bytes32Values[0] = i.templateHash;\n        bytes32Values[1] = i.initialHash;\n        bytes32Values[2] = i.claimedFinalHash;\n        bytes32Values[3] = getCurrentState(_index);\n\n        if (i.currentState == State.WaitingProviders) {\n            Drive[] memory drives = new Drive[](1);\n            drives[0] = i.inputDrives[i.providerDrivesPointer];\n            return (\n                uintValues,\n                addressValues,\n                bytes32Values,\n                i.claimedOutput,\n                drives\n            );\n        } else if (i.currentState == State.WaitingReveals) {\n            Drive[] memory drives = new Drive[](1);\n            drives[0] = i.inputDrives[i.revealDrivesPointer];\n            return (\n                uintValues,\n                addressValues,\n                bytes32Values,\n                i.claimedOutput,\n                drives\n            );\n        } else if (i.currentState == State.ProviderMissedDeadline) {\n            Drive[] memory drives = new Drive[](0);\n            return (\n                uintValues,\n                addressValues,\n                bytes32Values,\n                i.claimedOutput,\n                drives\n            );\n        } else {\n            return (\n                uintValues,\n                addressValues,\n                bytes32Values,\n                i.claimedOutput,\n                i.inputDrives\n            );\n        }\n    }\n\n    function getCurrentState(uint256 _index) public view\n        onlyInstantiated(_index)\n        returns (bytes32)\n    {\n        State currentState = instance[_index].currentState;\n        if (currentState == State.WaitingProviders) {\n            return \"WaitingProviders\";\n        }\n        if (currentState == State.WaitingReveals) {\n            return \"WaitingReveals\";\n        }\n        if (currentState == State.ClaimerMissedDeadline) {\n            return \"ClaimerMissedDeadline\";\n        }\n        if (currentState == State.ProviderMissedDeadline) {\n            return \"ProviderMissedDeadline\";\n        }\n        if (currentState == State.WaitingClaim) {\n            return \"WaitingClaim\";\n        }\n        if (currentState == State.WaitingConfirmation) {\n            return \"WaitingConfirmation\";\n        }\n        if (currentState == State.WaitingChallenge) {\n            return \"WaitingChallenge\";\n        }\n        if (currentState == State.ConsensusResult) {\n            return \"ConsensusResult\";\n        }\n\n        revert(\"Unrecognized state\");\n    }\n\n    /// @notice Get sub-instances of the instance.\n    function getSubInstances(uint256 _index, address) public view\n        onlyInstantiated(_index)\n        returns (address[] memory _addresses, uint256[] memory _indices)\n    {\n        address[] memory a;\n        uint256[] memory i;\n\n        if (instance[_index].currentState == State.WaitingChallenge) {\n            a = new address[](1);\n            i = new uint256[](1);\n            a[0] = address(vg);\n            i[0] = instance[_index].vgInstance;\n        } else {\n            a = new address[](0);\n            i = new uint256[](0);\n        }\n        return (a, i);\n    }\n\n    /// @notice Provide the content of a direct drive (only drive provider can call it).\n    /// @param _index index of Descartes instance the drive belongs to.\n    /// @param _value bytes value of the direct drive\n    function provideDirectDrive(uint256 _index, bytes memory _value) public\n        onlyInstantiated(_index)\n        requirementsForProviderDrive(_index)\n    {\n        DescartesCtx storage i = instance[_index];\n        uint256 driveIndex = i.providerDrives[i.providerDrivesPointer];\n        Drive storage drive = i.inputDrives[driveIndex];\n\n        require(!drive.needsLogger, \"Invalid drive to claim for direct value\");\n        require(\n            _value.length <= 2 ** drive.driveLog2Size,\n            \"Input bytes length exceeds the claimed log2 size\"\n        );\n\n        // pad zero to the directValue if it's not exact power of 2\n        bytes memory paddedDirectValue = _value;\n        if (_value.length < 2 ** drive.driveLog2Size) {\n            paddedDirectValue = abi.encodePacked(\n                    _value,\n                    new bytes(2 ** drive.driveLog2Size - _value.length)\n            );\n        }\n\n        bytes32[] memory data = getWordHashesFromBytes(paddedDirectValue);\n        bytes32 driveHash = Merkle.calculateRootFromPowerOfTwo(data);\n\n        i.driveHash[driveIndex] = driveHash;\n        i.providerDrivesPointer++;\n        i.timeOfLastMove = now;\n\n        if (i.providerDrivesPointer == i.providerDrives.length) {\n            if (i.needsRevealPhase) {\n                i.currentState = State.WaitingReveals;\n            } else {\n                i.currentState = State.WaitingClaim;\n            }\n        }\n\n        emit DriveInserted(_index, i.inputDrives[driveIndex]);\n    }\n\n    /// @notice Provide the root hash of a logger drive (only drive provider can call it).\n    /// @param _index index of Descartes instance the drive belongs to\n    /// @param _root root hash of the logger drive\n    function provideLoggerDrive(uint256 _index, bytes32 _root) public\n        onlyInstantiated(_index)\n        requirementsForProviderDrive(_index)\n    {\n        DescartesCtx storage i = instance[_index];\n        uint256 driveIndex = i.providerDrives[i.providerDrivesPointer];\n        Drive storage drive = i.inputDrives[driveIndex];\n\n        require(drive.needsLogger, \"Invalid drive to claim for logger\");\n\n        i.driveHash[driveIndex] = drive.loggerRootHash;\n        i.providerDrivesPointer++;\n        i.timeOfLastMove = now;\n\n        if (i.providerDrivesPointer == i.providerDrives.length) {\n            if (i.needsRevealPhase) {\n                i.currentState = State.WaitingReveals;\n            } else {\n                i.currentState = State.WaitingClaim;\n            }\n        }\n\n        emit DriveInserted(_index, i.inputDrives[driveIndex]);\n    }\n\n    /// @notice Reveal the content of a logger drive (only drive provider can call it).\n    /// @param _index index of Descartes instance the drive belongs to\n    function revealLoggerDrive(uint256 _index) public\n        onlyInstantiated(_index)\n    {\n        DescartesCtx storage i = instance[_index];\n        uint256 driveIndex = i.revealDrives[i.revealDrivesPointer];\n        require(i.currentState == State.WaitingReveals, \"The state is not WaitingReveals\");\n        require(driveIndex < i.inputDrives.length, \"Invalid driveIndex\");\n\n        Drive memory drive = i.inputDrives[driveIndex];\n\n        require(drive.needsLogger, \"needsLogger should be true\");\n        require(li.isLogAvailable(drive.loggerRootHash, drive.driveLog2Size), \"Hash is not available on logger yet\");\n\n        i.revealDrivesPointer++;\n        i.timeOfLastMove = now;\n\n        if (i.revealDrivesPointer == i.revealDrives.length) {\n            i.currentState = State.WaitingClaim;\n        }\n    }\n\n    /// @notice In case one of the parties wins the verification game,\n    ///         then he or she can call this function to claim victory in\n    ///         this contract as well.\n    /// @param _index index of Descartes instance to win\n    function winByVG(uint256 _index) public\n        onlyInstantiated(_index)\n        increasesNonce(_index)\n    {\n        DescartesCtx storage i = instance[_index];\n        require(\n            i.currentState == State.WaitingChallenge,\n            \"State is not WaitingChallenge, cannot winByVG\"\n        );\n        uint256 vgIndex = i.vgInstance;\n\n        if (vg.stateIsFinishedChallengerWon(vgIndex)) {\n            i.currentState = State.ChallengerWon;\n            return;\n        }\n\n        if (vg.stateIsFinishedClaimerWon(vgIndex)) {\n            i.currentState = State.ClaimerWon;\n            return;\n        }\n        require(false, \"State of VG is not final\");\n    }\n\n    /// @notice Deactivate a Descartes SDK instance.\n    /// @param _index index of Descartes instance to deactivate\n    function destruct(uint256 _index) public\n        onlyInstantiated(_index)\n        onlyBy(instance[_index].owner)\n    {\n        DescartesCtx storage i = instance[_index];\n        require(\n            i.currentState == State.ProviderMissedDeadline ||\n            i.currentState == State.ClaimerMissedDeadline ||\n            i.currentState == State.ConsensusResult ||\n            i.currentState == State.ChallengerWon ||\n            i.currentState == State.ClaimerWon,\n            \"Cannot destruct instance at current state\"\n        );\n\n        delete i.revealDrives;\n        delete i.providerDrives;\n        delete i.driveHash;\n        delete i.inputDrives;\n        deactivate(_index);\n    }\n\n    /// @notice Abort the instance by missing deadline.\n    /// @param _index index of Descartes instance to abort\n    function abortByDeadline(uint256 _index) public onlyInstantiated(_index) {\n        DescartesCtx storage i = instance[_index];\n        bool afterDeadline = now > (\n            i.timeOfLastMove + getMaxStateDuration(\n                _index\n            )\n        );\n\n        require(afterDeadline, \"Deadline is not over for this specific state\");\n\n        if (i.currentState == State.WaitingProviders) {\n            i.currentState = State.ProviderMissedDeadline;\n            return;\n        }\n        if (i.currentState == State.WaitingReveals) {\n            i.currentState = State.ProviderMissedDeadline;\n            return;\n        }\n        if (i.currentState == State.WaitingClaim) {\n            i.currentState = State.ClaimerMissedDeadline;\n            return;\n        }\n        if (i.currentState == State.WaitingConfirmation) {\n            i.currentState = State.ConsensusResult;\n            return;\n        }\n\n        revert(\"Cannot abort current state\");\n    }\n\n    /// @notice Get result of a finished instance.\n    /// @param _index index of Descartes instance to get result\n    /// @return bool, indicates the result is ready\n    /// @return bool, indicates the sdk is still running\n    /// @return address, the user to blame for the abnormal stop of the sdk\n    /// @return bytes32, the result of the sdk if available\n    function getResult(uint256 _index) public view\n        onlyInstantiated(_index)\n        returns (bool, bool, address, bytes memory)\n    {\n        DescartesCtx memory i = instance[_index];\n        if (i.currentState == State.ConsensusResult) {\n            return (true, false, address(0), i.claimedOutput);\n        }\n        if (i.currentState == State.WaitingProviders ||\n            i.currentState == State.WaitingClaim ||\n            i.currentState == State.WaitingConfirmation ||\n            i.currentState == State.WaitingChallenge) {\n            return (false, true, address(0), \"\");\n        }\n        if (i.currentState == State.ProviderMissedDeadline) {\n            address userToBlame = address(0);\n            // check if resulted from the WaitingProviders phase\n            if (instance[_index].providerDrivesPointer < instance[_index].providerDrives.length) {\n                userToBlame = i.inputDrives[i.providerDrivesPointer].provider;\n            // check if resulted from the WaitingReveals phase\n            } else if (instance[_index].revealDrivesPointer < instance[_index].revealDrives.length) {\n                userToBlame = i.inputDrives[i.revealDrivesPointer].provider;\n            }\n            return (false, false, userToBlame, \"\");\n        }\n        if (i.currentState == State.ClaimerMissedDeadline ||\n            i.currentState == State.ChallengerWon) {\n            return (false, false, i.claimer, \"\");\n        }\n        if (i.currentState == State.ClaimerWon) {\n            return (false, false, i.challenger, \"\");\n        }\n\n        revert(\"Unrecognized state\");\n    }\n\n    /// @notice Convert bytes32 into bytes8[] and calculate the hashes of them\n    function getWordHashesFromBytes32(bytes32 _value) private pure returns(bytes32[] memory) {\n        bytes32[] memory data = new bytes32[](4);\n        for (uint256 i = 0; i < 4; i++) {\n            bytes8 dataBytes8 = bytes8(_value << (i * 64) & 0xffffffffffffffff000000000000000000000000000000000000000000000000);\n            data[i] = keccak256(abi.encodePacked(dataBytes8));\n        }\n        return data;\n    }\n\n    /// @notice Convert bytes into bytes8[] and calculate the hashes of them\n    function getWordHashesFromBytes(bytes memory _value) private pure returns(bytes32[] memory) {\n        uint256 hashesLength = _value.length/8;\n        bytes32[] memory data = new bytes32[](hashesLength);\n        for (uint256 i = 0; i < hashesLength; i++) {\n            bytes8 dataBytes8;\n            for (uint256 j = 0; j < 8; j++) {\n                bytes8 tempBytes8 = _value[i * 8 + j];\n                tempBytes8 = tempBytes8 >> (j * 8);\n                dataBytes8 = dataBytes8 | tempBytes8;\n            }\n            data[i] = keccak256(abi.encodePacked(dataBytes8));\n        }\n        return data;\n    }\n\n    /// @notice Get the worst case scenario duration for a specific state\n    function getMaxStateDuration(\n        uint256 _index\n    ) private view returns (uint256)\n    {\n        uint256 partitionSize = 1;\n        uint256 picoSecondsToRunInsn = 500; // 500 pico seconds to run a instruction\n        uint256 timeToStartMachine = 40; // 40 seconds to start the machine for the first time\n\n        if (instance[_index].currentState == State.WaitingProviders) {\n            // time to react\n            return instance[_index].roundDuration;\n        }\n\n        if (instance[_index].currentState == State.WaitingReveals) {\n            // time to upload to logger + time to react\n            uint256 maxLoggerUploadTime = 40 * 60;\n            return maxLoggerUploadTime +\n                instance[_index].roundDuration;\n        }\n\n        if (instance[_index].currentState == State.WaitingClaim) {\n            // time to run entire machine + time to react\n            return timeToStartMachine +\n                ((instance[_index].finalTime * picoSecondsToRunInsn) / 1e12) +\n                instance[_index].roundDuration;\n        }\n\n        if (instance[_index].currentState == State.WaitingConfirmation) {\n            // time to run entire machine + time to react\n            return timeToStartMachine +\n                ((instance[_index].finalTime * picoSecondsToRunInsn) / 1e12) +\n                instance[_index].roundDuration;\n        }\n\n        if (instance[_index].currentState == State.WaitingChallenge) {\n            // time to run a verification game + time to react\n            return vg.getMaxInstanceDuration(\n                instance[_index].roundDuration,\n                timeToStartMachine,\n                partitionSize,\n                instance[_index].finalTime,\n                picoSecondsToRunInsn) + instance[_index].roundDuration;\n        }\n\n        if (instance[_index].currentState == State.ClaimerWon ||\n            instance[_index].currentState == State.ChallengerWon ||\n            instance[_index].currentState == State.ClaimerMissedDeadline ||\n            instance[_index].currentState == State.ConsensusResult) {\n            return 0; // final state\n        }\n    }\n\n    /// @notice several require statements for a drive\n    modifier requirementsForProviderDrive(uint256 _index) {\n        DescartesCtx storage i = instance[_index];\n        require(i.currentState == State.WaitingProviders, \"The state is not WaitingProviders\");\n        require(i.providerDrivesPointer < i.providerDrives.length, \"No available pending drives\");\n\n        uint256 driveIndex = i.providerDrives[i.providerDrivesPointer];\n        require(driveIndex < i.inputDrives.length, \"Invalid drive index\");\n\n        Drive memory drive = i.inputDrives[driveIndex];\n        require(i.driveHash[driveIndex] == bytes32(0), \"The drive hash shouldn't be filled\");\n        require(drive.waitsProvider, \"waitProvider should be true\");\n        require(drive.provider == msg.sender, \"The sender is not provider\");\n\n        _;\n    }\n}\n",
  "sourcePath": "/opt/cartesi/deployer/node_modules/@cartesi/descartes-sdk/contracts/Descartes.sol",
  "compiler": {
    "name": "solc",
    "version": "0.5.16+commit.9c3226ce.Emscripten.clang"
  },
  "schemaVersion": "3.2.0",
  "updatedAt": "2020-08-21T17:20:50.681Z",
  "networkType": "ethereum",
  "devdoc": {
    "methods": {
      "abortByDeadline(uint256)": {
        "params": {
          "_index": "index of Descartes instance to abort"
        }
      },
      "challenge(uint256)": {
        "params": {
          "_index": "index of Descartes instance which challenger is starting the VG."
        }
      },
      "confirm(uint256)": {
        "params": {
          "_index": "index of Descartes instance that the challenger is confirming the claim."
        }
      },
      "destruct(uint256)": {
        "params": {
          "_index": "index of Descartes instance to deactivate"
        }
      },
      "getResult(uint256)": {
        "params": {
          "_index": "index of Descartes instance to get result"
        },
        "return": "bool, indicates the result is readybool, indicates the sdk is still runningaddress, the user to blame for the abnormal stop of the sdkbytes32, the result of the sdk if available"
      },
      "instantiate(uint256,bytes32,uint64,uint64,uint256,address,address,(uint64,uint64,bytes,bytes32,address,bool,bool)[])": {
        "params": {
          "_finalTime": "max cycle of the machine for that computation",
          "_inputDrives": "an array of drive which assemble the machine",
          "_outputPosition": "position of the output drive",
          "_roundDuration": "duration of the round (security param)",
          "_templateHash": "hash of the machine with all drives empty"
        },
        "return": "uint256, Descartes index"
      },
      "provideDirectDrive(uint256,bytes)": {
        "params": {
          "_index": "index of Descartes instance the drive belongs to.",
          "_value": "bytes value of the direct drive"
        }
      },
      "provideLoggerDrive(uint256,bytes32)": {
        "params": {
          "_index": "index of Descartes instance the drive belongs to",
          "_root": "root hash of the logger drive"
        }
      },
      "revealLoggerDrive(uint256)": {
        "params": {
          "_index": "index of Descartes instance the drive belongs to"
        }
      },
      "submitClaim(uint256,bytes32,bytes32[][],bytes,bytes32[])": {
        "details": "Example: consider 3 drives, the first drive's siblings should be a pristine machine.      The second drive's siblings should be the machine with drive 1 mounted.      The third drive's siblings should be the machine with drive 2 mounted.",
        "params": {
          "_claimedFinalHash": "is the final hash of the machine",
          "_drivesSiblings": "is an array of siblings of each drive (see below example)",
          "_output": "is the bytes32 value of the output position",
          "_outputSiblings": "is the siblings of the output drive"
        }
      },
      "winByVG(uint256)": {
        "params": {
          "_index": "index of Descartes instance to win"
        }
      }
    }
  },
  "userdoc": {
    "methods": {
      "abortByDeadline(uint256)": {
        "notice": "Abort the instance by missing deadline."
      },
      "challenge(uint256)": {
        "notice": "Challenger disputes the claim, starting a verification game."
      },
      "confirm(uint256)": {
        "notice": "Challenger accepts claim."
      },
      "destruct(uint256)": {
        "notice": "Deactivate a Descartes SDK instance."
      },
      "getResult(uint256)": {
        "notice": "Get result of a finished instance."
      },
      "getState(uint256,address)": {
        "notice": "Get state of the instance concerning given user."
      },
      "getSubInstances(uint256,address)": {
        "notice": "Get sub-instances of the instance."
      },
      "instantiate(uint256,bytes32,uint64,uint64,uint256,address,address,(uint64,uint64,bytes,bytes32,address,bool,bool)[])": {
        "notice": "Instantiate a Descartes SDK instance."
      },
      "isConcerned(uint256,address)": {
        "notice": "Is the given user concern about this instance."
      },
      "provideDirectDrive(uint256,bytes)": {
        "notice": "Provide the content of a direct drive (only drive provider can call it)."
      },
      "provideLoggerDrive(uint256,bytes32)": {
        "notice": "Provide the root hash of a logger drive (only drive provider can call it)."
      },
      "revealLoggerDrive(uint256)": {
        "notice": "Reveal the content of a logger drive (only drive provider can call it)."
      },
      "submitClaim(uint256,bytes32,bytes32[][],bytes,bytes32[])": {
        "notice": "Claimer claims the machine final hash and also validate the drives and initial hash of the machine."
      },
      "winByVG(uint256)": {
        "notice": "In case one of the parties wins the verification game,         then he or she can call this function to claim victory in         this contract as well."
      }
    }
  }
}